:020000040800F2
:1000000000000120790E00086D3A00086F3A0008E0
:10001000713A0008733A0008753A000800000000C1
:10002000000000000000000000000000773A000817
:10003000793A0008000000007B3A00087D3A000889
:10004000C10E0008C10E0008C10E0008C10E000854
:10005000C10E0008C10E0008C10E0008C10E000844
:10006000C10E0008C10E0008C10E0008C10E000834
:10007000C10E0008C10E0008C10E0008C10E000824
:10008000C10E0008C10E0008C10E0008C10E000814
:100090008D3A0008C10E0008C10E0008C10E00080C
:1000A000C10E0008C10E0008C10E0008C10E0008F4
:1000B000C10E0008C10E0008C10E0008C10E0008E4
:1000C000C10E0008C10E0008C10E0008C10E0008D4
:1000D000C10E0008993A0008C10E0008C10E0008C0
:1000E000C10E0008C10E0008C10E0008C10E0008B4
:1000F000C10E0008C10E0008C10E0008C10E0008A4
:10010000C10E0008C10E0008C10E0008C10E000893
:10011000C10E0008C10E0008C10E0008C10E000883
:10012000C10E0008C10E0008C10E0008C10E000873
:1001300000000000000000000000000000000000BF
:1001400000000000000000000000000000000000AF
:10015000000000000000000000000000000000009F
:10016000000000000000000000000000000000008F
:10017000000000000000000000000000000000007F
:10018000000000000000000000000000000000006F
:10019000000000000000000000000000000000005F
:1001A000000000000000000000000000000000004F
:1001B000000000000000000000000000000000003F
:1001C000000000000000000000000000000000002F
:1001D000000000000000000000000000000000001F
:0401E0005FF8E0F1F3
:1001E80010B5054C237833B9044B13B10448AFF369
:1001F80000800123237010BDC80600200000000005
:10020800A888000808B5034B1BB103490348AFF39E
:10021800008008BD00000000CC060020A888000867
:10022800034613F8012B002AFBD1181A013870472E
:1002380081F0004102E000BF83F0004330B54FEA8F
:1002480041044FEA430594EA050F08BF90EA020FFC
:100258001FBF54EA000C55EA020C7FEA645C7FEA8F
:10026800655C00F0E2804FEA5454D4EB5555B8BFB2
:100278006D420CDD2C4480EA020281EA030382EA23
:10028800000083EA010180EA020281EA0303362DB5
:1002980088BF30BD11F0004F4FEA01314FF4801C88
:1002A8004CEA113102D0404261EB410113F0004F9A
:1002B8004FEA03334CEA133302D0524263EB430351
:1002C80094EA050F00F0A780A4F10104D5F1200EEF
:1002D8000DDB02FA0EFC22FA05F2801841F100014A
:1002E80003FA0EF2801843FA05F359410EE0A5F11E
:1002F80020050EF1200E012A03FA0EFC28BF4CF04F
:10030800020C43FA05F3C01851EBE37101F0004504
:1003180007D54FF0000EDCF1000C7EEB00006EEB11
:100328000101B1F5801F1BD3B1F5001F0CD349089B
:100338005FEA30004FEA3C0C04F101044FEA4452F2
:1003480012F5800F80F09A80BCF1004F08BF5FEA79
:10035800500C50F1000041EB045141EA050130BD59
:100368005FEA4C0C404141EB010111F4801FA4F1FC
:100378000104E9D191F0000F04BF01460020B1FA51
:1003880081F308BF2033A3F10B03B3F120020CDA89
:100398000C3208DD02F1140CC2F10C0201FA0CF067
:1003A80021FA02F10CE002F11402D8BFC2F1200CCC
:1003B80001FA02F120FA0CFCDCBF41EA0C01904082
:1003C800E41AA2BF01EB0451294330BD6FEA0404CB
:1003D8001F3C1CDA0C340EDC04F11404C4F12002B6
:1003E80020FA04F001FA02F340EA030021FA04F3C8
:1003F80045EA030130BDC4F10C04C4F1200220FA1F
:1004080002F001FA04F340EA0300294630BD21FA5C
:1004180004F0294630BD94F0000F83F4801306BF22
:1004280081F480110134013D4EE77FEA645C18BF16
:100438007FEA655C29D094EA050F08BF90EA020FAD
:1004480005D054EA000C04BF1946104630BD91EAA5
:10045800030F1EBF0021002030BD5FEA545C05D1A8
:100468004000494128BF41F0004130BD14F58004E7
:100478003CBF01F5801130BD01F0004545F0FE415B
:1004880041F470014FF0000030BD7FEA645C1ABF90
:10049800194610467FEA655C1CBF0B46024650EAC7
:1004A800013406BF52EA033591EA030F41F40021F3
:1004B80030BD00BF90F0000F04BF0021704730B579
:1004C8004FF4806404F132044FF000054FF000014E
:1004D80050E700BF90F0000F04BF0021704730B50F
:1004E8004FF4806404F1320410F0004548BF4042E4
:1004F8004FF000013EE700BF42004FEAE2014FEA39
:1005080031014FEA02701FBF12F07F4393F07F4F13
:1005180081F06051704792F0000F14BF93F07F4F45
:10052800704730B54FF4607401F0004521F0004188
:1005380020E700BF50EA010208BF704730B54FF00E
:1005480000050AE050EA010208BF704730B511F013
:10055800004502D5404261EB41014FF4806404F14B
:1005680032045FEA915C3FF4DCAE4FF003025FEACD
:10057800DC0C18BF03325FEADC0C18BF033202EB55
:10058800DC02C2F1200300FA03FC20FA02F001FAAF
:1005980003FE40EA0E0021FA02F11444C1E600BF4E
:1005A80070B54FF0FF0C4CF4E06C1CEA11541DBF01
:1005B8001CEA135594EA0C0F95EA0C0F00F0DEF8CC
:1005C8002C4481EA030621EA4C5123EA4C5350EAB1
:1005D800013518BF52EA033541F4801143F4801302
:1005E80038D0A0FB02CE4FF00005E1FB02E506F093
:1005F8000042E0FB03E54FF00006E1FB03569CF0E8
:10060800000F18BF4EF0010EA4F1FF04B6F5007FED
:1006180064F5407404D25FEA4E0E6D4146EB06065F
:1006280042EAC62141EA55514FEAC52040EA5E50E8
:100638004FEACE2EB4F1FD0C88BFBCF5E06F1ED892
:10064800BEF1004F08BF5FEA500E50F1000041EBC9
:10065800045170BD06F0004646EA010140EA020076
:1006680081EA0301B4EB5C04C2BFD4EB0C0541EA98
:10067800045170BD41F480114FF0000E013C00F3AD
:10068800AB8014F1360FDEBF002001F0004170BDD1
:10069800C4F10004203C35DA0C341BDC04F11404EA
:1006A800C4F1200500FA05F320FA04F001FA05F276
:1006B80040EA020001F0004221F0004110EBD37043
:1006C80021FA04F642EB06015EEA430E08BF20EA6F
:1006D800D37070BDC4F10C04C4F1200500FA04F312
:1006E80020FA05F001FA04F240EA020001F00041A4
:1006F80010EBD37041F100015EEA430E08BF20EA17
:10070800D37070BDC4F1200500FA05F24EEA020E5E
:1007180020FA04F301FA05F243EA020321FA04F08D
:1007280001F0004121FA04F220EA020000EBD37044
:100738005EEA430E08BF20EAD37070BD94F0000F44
:100748000FD101F00046400041EB010111F4801F78
:1007580008BF013CF7D041EA060195F0000F18BF29
:10076800704703F00046520043EB030313F4801F65
:1007780008BF013DF7D043EA0603704794EA0C0F1F
:100788000CEA135518BF95EA0C0F0CD050EA410635
:1007980018BF52EA4306D1D181EA030101F00041B2
:1007A8004FF0000070BD50EA410606BF10461946DA
:1007B80052EA430619D094EA0C0F02D150EA0136E6
:1007C80013D195EA0C0F05D152EA03361CBF104627
:1007D80019460AD181EA030101F0004141F0FE41C6
:1007E80041F470014FF0000070BD41F0FE4141F44A
:1007F800780170BD70B54FF0FF0C4CF4E06C1CEA4A
:1008080011541DBF1CEA135594EA0C0F95EA0C0FFE
:1008180000F0A7F8A4EB050481EA030E52EA0335B9
:100828004FEA013100F088804FEA03334FF08055DA
:1008380045EA131343EA12634FEA022245EA111507
:1008480045EA10654FEA00260EF000419D4208BFB8
:10085800964244F1FD0404F5407402D25B084FEA65
:100868003202B61A65EB03055B084FEA32024FF411
:1008780080104FF4002CB6EB020E75EB030E22BF6E
:10088800B61A754640EA0C005B084FEA3202B6EB2E
:10089800020E75EB030E22BFB61A754640EA5C00DD
:1008A8005B084FEA3202B6EB020E75EB030E22BF6D
:1008B800B61A754640EA9C005B084FEA3202B6EB6E
:1008C800020E75EB030E22BFB61A754640EADC002D
:1008D80055EA060E18D04FEA051545EA16754FEA8F
:1008E80006164FEAC30343EA52734FEAC2025FEAAD
:1008F8001C1CC0D111F4801F0BD141EA00014FF03C
:1009080000004FF0004CB6E711F4801F04BF01430C
:100918000020B4F1FD0C88BFBCF5E06F3FF6AFAE28
:10092800B5EB030C04BFB6EB020C5FEA500C50F1B8
:10093800000041EB045170BD0EF0004E4EEA11313B
:1009480014EB5C04C2BFD4EB0C0541EA045170BD42
:1009580041F480114FF0000E013C90E645EA060E86
:100968008DE60CEA135594EA0C0F08BF95EA0C0FB4
:100978003FF43BAF94EA0C0F0AD150EA01347FF4FC
:1009880034AF95EA0C0F7FF425AF104619462CE7D3
:1009980095EA0C0F06D152EA03353FF4FDAE104636
:1009A800194622E750EA410618BF52EA43067FF487
:1009B800C5AE50EA41047FF40DAF52EA43057FF417
:1009C800EBAE12E74FF0FF3C06E000BF4FF0010C22
:1009D80002E000BF4FF0010C4DF804CD4FEA410C86
:1009E8007FEA6C5C4FEA430C18BF7FEA6C5C1BD053
:1009F80001B050EA410C0CBF52EA430C91EA030FD4
:100A080002BF90EA020F0020704710F1000F91EA30
:100A1800030F58BF994208BF90422CBFD8176FEAFE
:100A2800E37040F0010070474FEA410C7FEA6C5CCC
:100A380002D150EA013C07D14FEA430C7FEA6C5CD3
:100A4800D6D152EA033CD3D05DF8040B704700BFFF
:100A58008446104662468C461946634600E000BF4D
:100A680001B5FFF7B7FF002848BF10F1000F01BD1F
:100A78004DF808EDFFF7F4FF0CBF012000205DF8EA
:100A880008FB00BF4DF808EDFFF7EAFF34BF01206F
:100A980000205DF808FB00BF4DF808EDFFF7E0FF08
:100AA80094BF012000205DF808FB00BF4DF808ED59
:100AB800FFF7CEFF94BF012000205DF808FB00BFC0
:100AC8004DF808EDFFF7C4FF34BF012000205DF8A2
:100AD80008FB00BF4FEA410C7FEA6C5C02D150EA88
:100AE800013C0AD14FEA430C7FEA6C5C02D152EA1E
:100AF800033C02D14FF0000070474FF001007047EF
:100B08004FEA410212F5001215D211D56FF478732D
:100B1800B3EB625212D94FEAC12343F0004343EAD0
:100B2800505311F0004F23FA02F018BF40427047AB
:100B38004FF00000704750EA013005D111F0004035
:100B480008BF6FF0004070474FF00000704700BFCB
:100B580053B94AB9002908BF00281CBF4FF0FF311C
:100B68004FF0FF3000F082B9ADF1080C6DE904CE0A
:100B780000F006F8DDF804E0DDE9022304B0704770
:100B88002DE9F04F8C460C460546099E002B4FD1A7
:100B98008A4217466BD9B2FA82FEBEF1000F0BD01B
:100BA800CEF1200520FA05F501FA0EF345EA030C0B
:100BB80002FA0EF700FA0EF5390CBCFBF1F0BAB2E6
:100BC80001FB10C300FB02F84FEA154C4CEA034442
:100BD800A04509D9E41900F1FF3380F02881A04528
:100BE80040F2258102383C44C8EB0404B4FBF1F31D
:100BF80001FB134C03FB02F2ACB244EA0C418A42FB
:100C080009D9C91903F1FF3480F00F818A4240F2F3
:100C18000C81023B39448A1A43EA00400021002E25
:100C280063D022FA0EF2002386E80C00BDE8F08FAC
:100C38008B4207D9002E56D0002186E811000846BD
:100C4800BDE8F08FB3FA83F1002940F09380A34206
:100C580002D3824200F2FE80851A64EB03039C46AD
:100C68000120002E41D086E82010BDE8F08F12B98F
:100C78000127B7FBF2F7B7FA87FEBEF1000F36D1AE
:100C8800E41B4FEA17481FFA87F90121B4FBF8F370
:100C980008FB134409FB03F24FEA154C4CEA0444E1
:100CA800A24207D9E41903F1FF3002D2A24200F2AE
:100CB800D3800346A41AB4FBF8F008FB104809FBDC
:100CC80000F9ACB244EA0842914507D9D21900F1BB
:100CD800FF3402D2914500F2BA802046C9EB0202E5
:100CE80040EA03409BE731463046BDE8F08F07FAFB
:100CF8000EF7CEF1200C24FA0CF34FEA1748B3FB99
:100D0800F8FA1FFA87F908FB1A3520FA0CFC04FADE
:100D18000EF40AFB09FB4CEA040C4FEA1C4242EAB7
:100D280005439B4500FA0EF50AD9DB190AF1FF3293
:100D380080F08B809B4540F28880AAF1020A3B44F0
:100D4800CBEB0303B3FBF8F008FB103300FB09F40B
:100D58001FFA8CFC4CEA03439C4207D9DB1900F1CB
:100D6800FF326ED29C426CD902383B441C1B40EACD
:100D78000A418BE7C1F1200E8B4022FA0EFC4CEAA7
:100D8800030C24FA0EF74FEA1C49B7FBF9FA1FFACD
:100D98008CF309FB1A7720FA0EF88C400AFB03F54E
:100DA80048EA04044FEA144848EA0747BD4202FAF1
:100DB80001F200FA01FB09D917EB0C070AF1FF3021
:100DC80041D2BD423FD9AAF1020A67447F1BB7FB53
:100DD800F9F509FB157705FB03F3A4B244EA0747C5
:100DE800BB4208D917EB0C0705F1FF3027D2BB42ED
:100DF80025D9023D674445EA0A40A0FB0289FF1A4B
:100E08004F4545464C4614D329D066B3BBEB050382
:100E180067EB040707FA0EFECB40CF404EEA030308
:100E280086E888000021BDE8F08F2346F3E61846DF
:100E3800DAE6B8EB020569EB0C040138E5E705468C
:100E4800D9E7104692E78246C0E7924678E702382B
:100E58003A4443E7084604E7023B3C442AE7C345D3
:100E6800E7D33C46D1E73146BDE8F08F704700BF75
:100E7800002103E00B4B5B58435004310A480B4BED
:100E880042189A42F6D30A4A02E0002342F8043B89
:100E9800084B9A42F9D300F011F802F09BFF02F0D8
:100EA800BBFC7047E48B000800000020C806002047
:100EB800C806002034110020FEE700000F4B1A6816
:100EC80042F001021A6059680D4A0A405A601A68CD
:100ED80022F0847222F480321A601A6822F4802286
:100EE8001A605A6822F4FE025A604FF41F029A6090
:100EF800044B4FF000629A60704700BF0010024038
:100F08000000FFF800ED00E010B5044601F0EEF82F
:100F18004FF47A73B0FBF3F000F088F80022214612
:100F28004FF0FF3000F042F8002010BD074A08B526
:100F38001368032043F01003136000F025F8002025
:100F4800FFF7E2FF02F014FD002008BD0020024078
:100F5800024A136801331360704700BFE40600209B
:100F6800014B1868704700BFE406002013B50190D4
:100F7800FFF7F6FF0446FFF7F3FF019B001B9842BB
:100F8800F9D302B010BD0000074A0002D36800F48C
:100F9800E06023F4E0631B041B0C43F0BF6343F4DD
:100FA80000330343D360704700ED00E0174B30B5C2
:100FB800DB68C3F30223C3F107041D1D042C28BFFB
:100FC8000424062D4FF0010505FA04F404F1FF345A
:100FD8008CBF033B00230C409C4005FA03F3013B04
:100FE8001A40002842EA04024FEA0212AFBF00F199
:100FF8006040074B00F00F00D2B2A5BFD2B200F597
:1010080061401A5480F8002330BD00BF00ED00E0B5
:1010180014ED00E04209012300F01F0003FA00F07C
:10102800014B43F82200704700E100E00138B0F1BD
:10103800807F0AD2064B074AF021586082F82310B5
:101048000020072298601A6070470120704700BF8F
:1010580010E000E000ED00E0044B04281A680CBF23
:1010680042F0040222F004021A60704710E000E027
:10107800704708B5FFF7FCFF08BD00002DE9F74FE2
:10108800002426466A4BDFF8B0E1DFF8B0C1012240
:101098000D68B24032EA050540F0C2804D68122D55
:1010A8002BD00ED8022D25D004D84DB3012D30D128
:1010B800CC682EE0032D1BD0112D2AD1CC68043426
:1010C80027E065451CD006D8DFF87481454517D060
:1010D80008F5803809E0DFF86C81454510D008F53F
:1010E800803845450CD0A8F58018454511D107E052
:1010F80000240EE0CC6808340BE0CC680C3408E01F
:101108008C682CB1012C0CBF02614261082400E0FC
:101118000424FF2A97BF8346A6F10805D0F800905B
:10112800B50084BFD0F80490AD004FF00F0808FA5E
:1011380005FA29EA0A0904FA05F588BF00F1040B43
:1011480049EA0505CBF80050D1F8049019F0805F02
:1011580066D0384D374FAD6906F0030A45F00105F2
:10116800BD61BD694FEA8A0A05F001050195019D37
:1011780026F0030505F1804505F58035D5F808B05A
:10118800A7F5843708FA0AF8B8422BEA080816D0F7
:1011980007F58067B84215D007F58067B84214D0C4
:1011A80007F58067B84213D007F58067B84212D0B8
:1011B80070450CBF4FF0050B4FF0060B0DE04FF0DC
:1011C800000B0AE04FF0010B07E04FF0020B04E0C0
:1011D8004FF0030B01E04FF0040B0BFA0AFA4AEA4E
:1011E800080AC5F808A01D6819F4803F14BF154304
:1011F80095431D605D6819F4003F14BF154395437E
:101208005D609D6819F4801F14BF154395439D6068
:10121800DD6819F4001F14BF2A4325EA0202DA60C8
:101228000136102E7FF433AF03B0BDE8F08F00BF56
:101238000004014000100240001C01400000211081
:10124800000011100000311002B909040161704753
:10125800C3685940C16070472DE9F041044686B023
:1012680000285FD090F8E93303F0FF021BB980F83B
:10127800E82302F05BFC25466E46032355F8100B65
:1012880084F8E93301F0E8F90FCD0FC62B68271D64
:10129800336097E80E00206801F0CEF9002120683D
:1012A80001F0E4F9002123462246084604F110051E
:1012B800012682F82810918601310F2982F82960C9
:1012C80082F82B009063D063106402F12002F0D101
:1012D8000022114683F808229A8601320F2A83F8E1
:1012E800091283F80B12C3F81812C3F81C12C3F8BA
:1012F80020124FF0000803F12003EBD16E460FCD0A
:101308000FC62B68336097E80E00206801F0B0F92B
:10131800012384F82480206884F8E93301F061FC13
:10132800404600E0012006B0BDE8F08190F8E833BF
:1013380010B5012B04460ED0012180F8E81302F005
:10134800F6FC206801F04BFC206801F07CF90020D5
:1013580084F8E80310BD022010BD90F8E82310B50A
:10136800012A04460BD0012280F8E82384F82410CF
:10137800006801F02EFC002084F8E80310BD02206C
:1013880010BD38B5044648B2002801F07F05B5BF46
:1013980004EB451104EB4111283101F50271C00F2E
:1013A8000D704870CB7094F8E8330A61012B09D0AE
:1013B800012384F8E833206801F06EF9002084F8EE
:1013C800E80338BD022038BD4BB2002B01F07F0284
:1013D800B5BF00EB421100EB4111283101F5027154
:1013E800DB0F10B50A704B7090F8E8330446012BF8
:1013F80009D0012380F8E833006801F0BFFA002023
:1014080084F8E80310BD022010BD70B5044601F051
:101418007F0670012518C5F820320023C5F81C2264
:10142800C5F8243285F8093285F8086294F8E8335B
:10143800012B0CD0012300F50270211884F8E83341
:10144800206801F0E7FB002084F8E80370BD022063
:1014580070BD01F07F0100EB4110B0F82402704725
:1014680070B5044601F07F06700125182B6400232F
:101478006B640123EA6385F8293085F8286094F8BD
:10148800E8239A420AD02830211884F8E8332068E3
:1014980001F0C0FB002084F8E80370BD022070BD95
:1014A8002DE9F3410446006801F09DFB000416D4C1
:1014B800206801F098FB410540F1DB812268204655
:1014C800B2F8443023F480631B041B0CA2F84430A8
:1014D80002F063FB00212046FFF73FFFC9E100232C
:1014E800ADF8043004F57B77ADF806302068B0F825
:1014F80044309BB2ADF804301B04D9D5BDF8045074
:1015080015F00F0540F0B580BDF80410038801F010
:10151800100189B259BB23F4E14323F070031B0483
:101528001B0C0380B0F8503094F828209BB203EBD2
:10153800C20300EB4300D0F80434E26BC3F30903A1
:1015480063641344E363204602F01CFB94F82430E0
:10155800002BCBD0226C002AC8D194F82430216803
:1015680043F08003A1F84C3084F82420BEE79BB2F6
:10157800ADF80630BDF806301A051ED5B0F8503063
:1015880094F808229BB203EBC20300EB4303D3F8A1
:101598000C34B4F80C22C3F30903C4F824323946D6
:1015A80001F008FC22682046138823F070031B050D
:1015B8001B0D138002F0D8FA98E7BDF806301B041B
:1015C80094D5038823F070031B051B0D0380B0F826
:1015D800503094F808229BB203EBC20300EB43039C
:1015E800D3F80C34C3F30903C4F8243263B1B4F854
:1015F8000C22D4F81C1201F0DDFBD4F81C22D4F81C
:1016080024321344C4F81C320021204602F0B2FAF6
:101618002268D4F81852B2F850103E2D89B201F160
:10162800060102F580600BD9C5F34F13EE0604BF1F
:1016380003F1FF339BB26FEAC3636FEA534306E0DB
:10164800C5F34F03ED0744BF01339BB29B029BB226
:1016580040F81130138823F4804323F070031B04EF
:101668001B0C83F4405343F4004343F0800313807E
:101678003CE730F825309BB2ADF80630BDF80630AF
:10168800190477D530F825304FEA451823F0700350
:101698001B051B0D20F8253004EB080191F81232C8
:1016A800ABB9B0F8503091F808229BB203EBC203F3
:1016B80000EB4303D3F80C64C6F30906DEB3B1F8B4
:1016C8000C223346D1F81C1201F074FB33E091F878
:1016D800083230F82320DB0012F4804FB0F8502095
:1016E80092B2134400EB430308D0D3F80464C6F362
:1016F80009067EB13346B1F80E2207E0D3F80C6430
:10170800C6F3090636B13346B1F81022D1F81C12D7
:1017180001F050FB04EB080393F80812226832F832
:10172800213023F0F0031B051B0D43F4004343F065
:10173800C00322F8213004EB0801D1F82432D1F893
:101748001C223344C1F82432D1F820323244C1F883
:101758001C221BB1D1F81802864206D2A04498F880
:101768000812204602F006FA04E091F80812204612
:10177800FFF74BFEBDF806301A067FF5B7AE2068B6
:101788006E0130F82530A11923F4E14323F07003EA
:101798001B041B0C20F8253091F832300235B3B900
:1017A800B0F8503091F828209BB203EBC20300EB4D
:1017B8004303D3F8043404EB4515C3F309036B6002
:1017C800002B38D08A8DC96B01F013FA33E091F8F9
:1017D800283030F82320DB0012F0400FB0F85020FA
:1017E80092B2134400EB430309D0D3F8043404EB5A
:1017F8004515C3F309036B606BB1CA8D08E0D3F8D4
:101808000C3404EB4515C3F309036B601BB10A8E56
:10181800C96B01F0EEF9A31993F82810226832F881
:10182800213023F0F0031B051B0D43F4404343F024
:10183800800322F821302068A119B0F8502091F8CF
:10184800283092B202EBC30300EB4303D3F804241D
:10185800CB6BC2F309024A641A440B6CCA63204674
:1018680091F8281013B902F08DF93FE6FFF7F8FD5B
:101878003CE6206801F0B7F9470408D52268B2F8B9
:10188800443023F480431B041B0CA2F84430206826
:1018980001F0A9F9860408D52268B2F8443023F487
:1018A80000531B041B0CA2F84430206801F09BF97C
:1018B800C50418D522682046B2F8403023F0040346
:1018C8001B041B0CA2F840304FF43D43A2F84030F3
:1018D80002F080F92268B2F8443023F480531B04E4
:1018E8001B0CA2F84430206801F07DF900051DD5D5
:1018F8002068B0F8443023F400631B041B0CA0F8E4
:101908004430B0F840309BB243F00803A0F84030B0
:10191800B0F840309BB243F00403A0F8403001F027
:1019280062F9C10402D4204602F044F9206801F0AB
:101938005AF982050BD522682046B2F8443023F4C0
:1019480000731B041B0CA2F8443002F022F9206833
:1019580001F049F9C30508D52268B2F8443023F4E8
:1019680080731B041B0CA2F8443002B0BDE8F08160
:1019780038B54BB2002B01F07F05B5BF00EB451120
:1019880000EB4111283101F502710122DB0FEDB2A4
:101998008A700D704B7090F8E833044693420ED06D
:1019A80080F8E823006801F0A1F825B904F57B71F7
:1019B800206801F01CF9002084F8E80338BD0220F3
:1019C80038BD38B54BB2002B01F07F02B5BF00EB34
:1019D800421100EB4111283101F50271DB0F00249F
:1019E8008C700A704B7090F8E8330546012B09D0CB
:1019F800012380F8E833006801F0A9F885F8E84386
:101A0800204638BD022038BD11F0800F1BBF01F001
:101A18007F0100EB411000EB4110283008BF00F5B2
:101A2800027012B98272838004E00122C3801B0C09
:101A3800827203810020704703682DE9F743DC07B1
:101A4800054603D42B68980773D4F2E0B94C636851
:101A580003F00C03042B07D0636803F00C03082B76
:101A680016D16368D90313D54FF4003393FAA3F260
:101A7800226893FAA3F3B3FA83F303F01F0322FA5D
:101A880003F3DA07DED56B68002BDBD101202DE2EA
:101A98006B68B3F5803F15D06BB923684FF40036F7
:101AA80023F480332360236823F480232360FFF723
:101AB80057FA07462FE0B3F5A02F236806D143F461
:101AC80080232360236843F4803305E023F48033C4
:101AD8002360236823F480232360FFF741FA074635
:101AE8004FF4003696FAA6F3226896FAA6F3B3FAEC
:101AF80083F303F01F0322FA03F3DB07A2D4FFF7F3
:101B08002FFAC01B6428EDD90320EFE1FFF728FA6C
:101B1800C01B6428F8D896FAA6F3226896FAA6F3AA
:101B2800B3FA83F303F01F0322FA03F3D807EDD4C3
:101B380088E7804C636813F00C0F07D0636803F0E4
:101B48000C03082B21D16368D9031ED4022393FA0E
:101B5800A3F2226893FAA3F3B3FA83F303F01F0303
:101B680022FA03F3DA0702D52B69012B8ED12368F9
:101B7800F82292FAA2F2B2FA82F2696923F0F80323
:101B880001FA02F21343236053E02A6901237AB36E
:101B980093FAA3F2B2FA82F2920002F1844202F5B9
:101BA80084021360FFF7DCF90746022696FAA6F3CB
:101BB8006048226896FAA6F3B3FA83F303F01F038A
:101BC80022FA03F3DB0705D4FFF7CAF9C01B022882
:101BD800ECD999E70368F82292FAA2F2B2FA82F2F3
:101BE800696923F0F80301FA02F21343036020E065
:101BF80093FAA3F3B3FA83F39B0003F1844303F549
:101C080084031A60FFF7ACF90746022696FAA6F392
:101C1800226896FAA6F3B3FA83F303F01F0322FAB5
:101C280003F3D90705D5FFF79BF9C01B0228EDD9A7
:101C38006AE72B681A0746D5AA693E4C01233E4934
:101C480012B393FAA3F2B2FA82F241F82230FFF704
:101C580087F90746022696FAA6F396FAA6F3626A69
:101C680096FAA6F3B3FA83F303F01F0322FA03F3F9
:101C7800DB0705D4FFF774F9C01B0228EBD943E74B
:101C88000120FFF773F91EE093FAA3F3B3FA83F385
:101C980041F82320FFF764F90746022696FAA6F3CF
:101CA80096FAA6F3626A96FAA6F3B3FA83F303F0F8
:101CB8001F0322FA03F3D80705D5FFF751F9C01B14
:101CC8000228EBD920E72B68590704D4EA69002ACF
:101CD80040F08180D8E0174C184EE36943F08053F8
:101CE800E361E36903F080530193019B336843F494
:101CF80080733360FFF734F907463368DA0505D493
:101D0800FFF72EF9C01B6428F7D9FDE6EB68012B15
:101D18001CD0ABB9236A022623F001032362236A8D
:101D2800374623F004032362FFF71AF941F2883992
:101D3800804648E0001002408004424200700040A3
:101D4800052B236A06D143F004032362236A43F078
:101D5800010305E023F001032362236A23F004034F
:101D68002362FFF7FDF802268146B04641F2883724
:101D780096FAA6F396FAA6F30BB1226A00E0626A15
:101D880098FAA8F3B3FA83F303F01F0322FA03F3D4
:101D9800DB079BD4FFF7E4F8C9EB0000B842E7D9AA
:101DA800B2E6626A97FAA7F3B3FA83F303F01F0364
:101DB80022FA03F3D80789D5FFF7D2F8C8EB000059
:101DC80048453FF6A1AE96FAA6F396FAA6F3002B7D
:101DD800E7D0226AE6E7474C636803F00C03082B58
:101DE8003FF454AE022A4FF080735CD193FAA3F308
:101DF800B3FA83F39B0003F1844303F584030022C1
:101E08001A60FFF7ADF880464FF0007696FAA6F311
:101E1800384F226896FAA6F3B3FA83F303F01F0348
:101E280022FA03F3D90731D42E6AB6F5803F05D1DB
:101E3800796821F40030A9680143796063686A6AA7
:101E480023F474133243134363604FF0807393FA9F
:101E5800A3F3B3FA83F39B0003F1844303F58403EC
:101E680001221A60FFF77CF806464FF0007595FAD4
:101E7800A5F3226895FAA5F3B3FA83F303F01F03D9
:101E880022FA03F3DA0708D500202FE0FFF768F8F5
:101E9800C8EB00000228B9D936E6FFF761F8801BC5
:101EA8000228E4D930E693FAA3F3B3FA83F39B004C
:101EB80003F1844303F5840300221A60FFF750F806
:101EC80006464FF0007595FAA5F3226895FAA5F332
:101ED800B3FA83F303F01F0322FA03F3DB07D3D526
:101EE800FFF73EF8801B0228EDD90DE603B0BDE8E8
:101EF800F08300BF001002401F4B70B503F11005BE
:101F08002E4686B002AC224618685968083303C2C8
:101F1800AB421446F7D13388184CADF804306068EA
:101F280000F00C03082B24D14FF4701393FAA3F399
:101F3800B3FA83F300F4701222FA03F306AA1344E7
:101F480013F8101CC30311D562684FF4003393FAD9
:101F5800A3F3B3FA83F002F40033C34006AA134490
:101F680013F8140C064BB3FBF0F000E005484843A7
:101F780000E0034806B070BDC088000800100240A9
:101F880000127A0000093D00544A2DE9F041136817
:101F9800064603F007038B420D460AD331688C07C7
:101FA80014D54F48436823F0F002B36813434360E5
:101FB8000CE0136823F007030B431360136803F066
:101FC80007039942EAD00120BDE8F081C80706D48A
:101FD800424A136803F007039D424AD353E07268EC
:101FE8003F4C012A02D14FF4003304E0022A0CBF0F
:101FF8004FF00073022393FAA3F1216893FAA3F335
:10200800B3FA83F303F01F0321FA03F3D907DAD5F0
:10201800636841F2883823F003031A436260FEF7CD
:102028009FFF73680746012B0CD1636803F00C030C
:10203800042BCDD0FEF794FFC01B4045F5D90320F3
:10204800BDE8F081022B0FD1636803F00C03082B65
:10205800BED0FEF785FFC01B4045F5D9EFE7FEF778
:102068007FFFC01B4045EAD8636813F00C0FF6D118
:10207800AEE7136823F007032B431360136803F0DC
:1020880007039D429FD13168154C11F0040F05D00C
:10209800636823F4E062F368134363600B0706D5B3
:1020A8006368326923F4605343EAC2036360FFF74D
:1020B80023FF6368F02292FAA2F2B2FA82F203F0E6
:1020C800F003D340074AD35CD840074B1860002080
:1020D800FEF71AFF0020BDE8F08100BF0020024093
:1020E80000100240D288000800000020014B186848
:1020F800704700BF00000020084B4FF4E0625B68A7
:1021080092FAA2F2B2FA82F203F4E063D340044AEC
:10211800D35C044A1068D840704700BF00100240E2
:10212800E288000800000020084B4FF460525B680A
:1021380092FAA2F2B2FA82F203F46053D340044A4C
:10214800D35C044A1068D840704700BF00100240B2
:10215800E28800080000002003682DE9F743DC0747
:10216800054664D53E4C3F4EE36943F08053E36136
:10217800E36903F080530193019B336843F4807350
:102188003360FEF7EDFE07463368D80506D4FEF740
:10219800E7FEC01B6428F7D903205DE0236A3048B6
:1021A80013F4407306D1236A23F440726B68134317
:1021B80023623CE06A6802F440729342F3D0016AF9
:1021C8004FF4803321F4407793FAA3F2B2FA82F203
:1021D800254E4FF0010E46F822E093FAA3F3B3FA26
:1021E80083F30022C90746F823200762DBD5FEF7F0
:1021F800B7FE02268046374641F2883996FAA6F39A
:1022080096FAA6F30BB1226A00E0626A97FAA7F37E
:10221800B3FA83F303F01F0322FA03F3DA07C2D4F5
:10222800FEF79EFEC8EB00004845E7D9B4E72868EA
:10223800830706D50A494B6823F44042AB68134329
:102248004B6010F0100007D0054900204B6823F4BC
:1022580080026B6913434B6003B0BDE8F08300BF95
:102268000010024000700040000442422DE9F0478F
:10227800066881683369814623F44052C36819248B
:10228800134333610369F26819434369194322F41C
:10229800B05323F00C030B43F360736923F44072CB
:1022A8008369134373613D4B9E4231D1FFF73CFF75
:1022B8006043D9F804704FF06408BF00B0FBF7F72B
:1022C800FFF732FF6043D9F80450B7FBF8F7AD00C9
:1022D800B0FBF5F5FFF728FF6043D9F804303F015C
:1022E8009B00B0FBF3F0B0FBF8F008FB1055FFF7CC
:1022F8001BFF2D013235B5FBF8F56043D9F8041002
:1023080005F0F0058900B0FBF1FAFFF70DFF30E0AA
:10231800FFF7F2FE6043D9F804704FF06408BF007D
:10232800B0FBF7F7FFF7E8FE6043D9F80450B7FBB6
:10233800F8F7AD00B0FBF5F5FFF7DEFE6043D9F81E
:1023480004303F019B00B0FBF3F0B0FBF8F008FB52
:102358001055FFF7D1FE2D013235B5FBF8F5604376
:10236800D9F8041005F0F0058900B0FBF1FAFFF781
:10237800C3FE4443D9F804008000B4FBF0F0B0FB7E
:10238800F8F008FB10A212013232B2FBF8F303F0A6
:102398000F032B441F44B760BDE8F08700380140A5
:1023A80010B5044630B390F8393003F0FF021BB97A
:1023B80080F8382001F022FB2268022384F83930A3
:1023C800D368204623F40053D360FFF74FFF2368F8
:1023D80000201A6922F490421A615A6922F02A02EE
:1023E8005A61DA6842F40052DA600123E06384F843
:1023F800393010BD012010BD90F83930DBB2012B07
:1024080001D0222B20D1E9B1E2B190F83830012B6C
:102418001AD0012380F838300023C3638284C28431
:1024280090F8392080F83830222A0CBF3222122244
:1024380080F8392002680162D368002043F08003E5
:10244800D3607047012070470220704790F83930F8
:10245800DBB2012B01D0122B28D129B322B390F87B
:102468003830012B22D0012380F838300023C36391
:102478008285C28590F8392080F83830122A03689E
:102488000CBF3222222280F83920DA68816242F4B5
:102498008072DA605A69002042F001025A61DA68F3
:1024A80042F02002DA60704701207047022070472E
:1024B80070477047026813B511680446C907D368A6
:1024C80005D5DB0542BFC36B43F00103C363116845
:1024D8005369880703F0010304D51BB1E16B41F090
:1024E8000401E1631168490704D51BB1E16B41F0B0
:1024F8000201E1631168080704D51BB1E36B43F0DF
:102508000803E3631168D368890642D5980640D565
:1025180094F8393003F0EF03222B3AD1A3682169EC
:10252800B3F5805FA36A0BD1526821B9C2F30802E0
:1025380023F8022B02E0D2B223F8012BA3620AE0AF
:1025480019B9591CA162526804E05268591CA16269
:1025580002F07F021A70E38D013B9BB2E385C3B999
:1025680023682046DA6822F02002DA6094F83920DD
:10257800322A17BFDA68122322F48072DA601FBF8A
:102588005A6922F001025A61012384F8393001F0B6
:10259800EAF823681968DA68090628D5100626D5E6
:1025A80094F8392002F0DF02122A20D1A268B2F58D
:1025B800805F226A0AD11188C1F308015960216934
:1025C80009B9023200E00132226203E0511C2162A3
:1025D80012785A60E28C013A92B2E2843AB9DA6827
:1025E80022F08002DA60DA6842F04002DA601968A4
:1025F800DA68490610D552060ED5DA68204622F068
:102608004002DA6094F83930322B0CBF22230123C0
:1026180084F83930FFF74CFFE36B5BB12368204641
:102628001A6801925B680193019B012384F8393091
:10263800FFF73FFF02B010BD84B001A880E80E008C
:1026480004B000207047B0F840309BB243F43D43DB
:10265800A0F8403000207047B0F8403023F474539D
:102668005B045B0CA0F840300020704700207047E6
:1026780084B010B503AC84E80E00BDE81040012317
:10268800A0F840300023A0F8403004B0A0F844304F
:10269800A0F8503018467047CB7830B50A78032B2D
:1026A8002BD8DFE803F0021F0C1530F822309BB25C
:1026B80023F4EC4323F0700343F400731BE030F879
:1026C800223023F4EC4323F070031B041B0C12E0AC
:1026D80030F822309BB223F4EC4323F0700343F428
:1026E800C06308E030F822309BB223F4EC4323F0B7
:1026F800700343F4806320F822300C7830F82430DB
:1027080044F4004223F0F0031B051B0D42F0800245
:10271800134320F824308B7A0D78002B74D14A7833
:102728008B883AB3B0F850205B0892B202EBC5042C
:102738005B0000EB4404C4F800340A7830F8223017
:102748005B060BD530F8223023F0F0031B051B0D78
:1027580043F4004343F0C00320F822300A7830F8ED
:10276800223023F4E04323F040031B041B0C83F0C6
:102778002003FBE0B0F850405B08A4B204EBC504AA
:1027880004345B0000F5806242F81430B0F8504021
:102798000B780D69A4B204EBC3043E2D04F10604C2
:1027A8000BD9C5F34F13ED0604BF03F1FF339BB2FA
:1027B8006FEAC3636FEA534306E0C5F34F03ED07BF
:1027C80044BF01339BB29B029BB242F814300A7893
:1027D80030F822305C040BD530F8223023F0F003B7
:1027E8001B051B0D43F4404343F0800320F82230BF
:1027F8000A7830F8223023F4804323F070031B0456
:102808001B0C83F44053B1E030F8253000F58064A8
:1028180023F4F8731B051B0D43F4014343F08003B5
:1028280020F82530B0F850300A789BB203EBC20389
:10283800CA885208520044F81320B0F850300A7879
:102848009BB203EBC2030A8904335208520044F8CE
:1028580013204B780A78002B46D130F822305B04DD
:102868000BD530F8223023F0F0031B051B0D43F481
:10287800404343F0800320F822300A7830F82230B1
:102888005D060BD530F8223023F0F0031B051B0D35
:1028980043F4004343F0C00320F822300A7830F8AC
:1028A800223023F0F0031B051B0D43F4004343F0D3
:1028B800C00320F822300A7830F8223023F480430D
:1028C80023F070031B041B0C83F4405343F40043B0
:1028D80043F0800320F822300A7830F8223023F0C1
:1028E800C0031B051B0D41E030F822305C040BD5FA
:1028F80030F8223023F0F0031B051B0D43F440434E
:1029080043F0800320F822300A7830F822305B0642
:102918000BD530F8223023F0F0031B051B0D43F4D0
:10292800004343F0C00320F822300A7830F8223000
:1029380023F0F0031B051B0D43F4404343F08003D1
:1029480020F822300A7830F8223023F0C0031B0523
:102958001B0D43F4004343F0800320F822300A782B
:1029680030F8223023F0F0039B049B0C43F400431F
:1029780043F0800320F82230002030BD10B58C7A57
:102988004A780B781CBB82B130F8232052065BD5FD
:1029980030F8232022F0F0021205120D42F4004212
:1029A80042F0C00220F823204EE030F823205404DF
:1029B80040F18D8030F8232022F0F0021205120D2C
:1029C80042F4404242F0800220F823207FE0002AAF
:1029D80042D130F8232052040BD530F8232022F0BE
:1029E800F0021205120D42F4404242F0800220F833
:1029F80023200A7830F822305C060BD530F82230D4
:102A080023F0F0031B051B0D43F4004343F0C00300
:102A180020F822300A7830F8223023F0F0031B0522
:102A28001B0D43F4004343F0C00320F822300A781A
:102A380030F8223023F0F0039B049B0C43F400434E
:102A480043F0800320F822300A7830F8223023F04F
:102A5800C0031B051B0D41E030F8232052040BD5A1
:102A680030F8232022F0F0021205120D42F4404201
:102A780042F0800220F823200A7830F822305B06E2
:102A88000BD530F8223023F0F0031B051B0D43F45F
:102A9800004343F0C00320F822300A7830F822308F
:102AA80023F0F0031B051B0D43F4404343F0800360
:102AB80020F822300A7830F8223023F0C0031B05B2
:102AC8001B0D43F4004343F0800320F822300A78BA
:102AD80030F8223023F0F0039B049B0C43F40043AE
:102AE80043F0800320F82230002010BD0A787AB91C
:102AF80003889BB223F4804323F0400383F480537C
:102B080083F0100343F4004343F0800303801CE088
:102B18004B7853B130F8223023F4E04323F04003DC
:102B28001B041B0C83F0100309E030F8223023F457
:102B3800804323F070031B041B0C83F4805343F47D
:102B4800004343F0800320F82230002070474B7880
:102B58000A78DBB130F822305B060BD530F822302A
:102B680023F0F0031B051B0D43F4004343F0C0039F
:102B780020F822300A7830F8223023F4E04323F09A
:102B880040031B041B0C83F030031AE030F822309A
:102B98005B040BD530F8223023F0F0031B051B0D26
:102BA80043F4404343F0800320F822300A7830F899
:102BB800223023F4804323F070031B041B0C83F49E
:102BC800405343F4004343F0800320F822300020B0
:102BD800704711B98023A0F84C30002070470020BE
:102BE800704700207047B0F8440080B2704700205A
:102BF8007047013300F5806010B55B1000EB4202AE
:102C08000024A34205D031F8020B22F82400013435
:102C1800F7E710BDF8B5044648780E4601288B69D9
:102C28000A698F7A57D11D46934283BF9D1A8D61D9
:102C38001546002398BF8B61ABB27FB98A882046BE
:102C48004969FFF7D6FFB4F8503032789BB203EBEE
:102C5800C20304EB4303C3F8045430E00A78204667
:102C680034F82210D20011F0400FB4F8501089B295
:102C78000A4404EB4202C2F80454716914BF328951
:102C8800F288FFF7B6FF7378327853B934F82230F8
:102C980023F0F0031B051B0D43F4004343F0C0036E
:102CA8000BE0012B0BD134F8223023F0F0031B0585
:102CB8001B0D43F4404343F0800324F8223032785C
:102CC80034F8223023F4E04323F040031B041B0CA8
:102CD80083F0300366E093428BBF9B1A00228B611E
:102CE8008A6188BF1346097827B300BBB4F850201F
:102CF8003E2B92B202EBC10101F1020104F58060A2
:102D08000BD9C3F34F12DD0604BF02F1FF3292B2B2
:102D18006FEAC2626FEA524206E0C3F34F02DF076E
:102D280044BF013292B2920292B240F811207278F6
:102D380031780ABBB4F850203E2B92B202EBC101A5
:102D480001F1060104F580600BD9C3F34F12DD06CB
:102D580004BF02F1FF3292B26FEAC2626FEA5242D6
:102D680006E0C3F34F02DB0744BF013292B292027E
:102D780092B240F811200AE0012A08D1B4F8502094
:102D880092B202EBC10104EB4101C1F8043432787C
:102D980034F8223023F4804323F070031B041B0C07
:102DA80083F4405343F4004343F0800324F8223073
:102DB8000020F8BD013300F5806010B55B1000EB12
:102DC80042020024A34205D052F8240021F814003E
:102DD8000134F7E710BD00006B23038000487047FB
:102DE800A4000020D0F8183243B141F080018329B3
:102DF8004FF000000CBF18735867704702207047E7
:102E08000A230380004870471001002038B5D0F825
:102E1800184205460B467CB102290DD000F07BFF15
:102E28002146D5F81C3241F86C0FDB68606E984774
:102E38004023626E012107E01946284600F06BFF27
:102E48002269606140230221284600F05DFF0020CE
:102E580038BD00002DE9F0410746C4B0D0F818622B
:102E68000C4679B14B780A78C98804A80291A188E0
:102E78000191618800914B4901F006F8C1B204A89C
:102E880000F072FC237813F0600552D0202D40F03A
:102E9800848003F00F02012A607801D1A28804E03F
:102EA800022A21D1A288832A01D0022A1CD1023801
:102EB800092813D8DFE800F00F08121212121212B4
:102EC8000B05A378336068E0012231461BE0638874
:102ED8001B0A736061E00122311D14E02146384667
:102EE80000F04CFA022559E0E588DDB113F0800FB7
:102EF80006F120080BD0D7F81C322A4641469B68B9
:102F080098474146E288384600F0EBFB45E086F8F2
:102F18006000E388414686F86130E288384600F070
:102F2800F5FB3AE0D7F81C322A469B6821469847B9
:102F380034E063780A2B18D00B2B25D0062B2DD123
:102F480063881B0A222B05D1E2881749562A28BF15
:102F5800562215E0212B05D1E2881449092A28BFF9
:102F680009220DE029462A460AE0A3780122832B8C
:102F780001D0022B02D106F1080101E006F11C0183
:102F8800384600F0AEFB09E0A378832B01D0022B72
:102F980001D1B36002E0F36100E00025284644B0A7
:102FA800BDE8F081EA8800084C00002040000020BD
:102FB80010B50446832100F074FE0221204600F07B
:102FC80070FE8221204600F06CFE0121204600F0B0
:102FD80068FE8121204600F064FED4F8183253B10F
:102FE800D4F81C325B689847D4F8180200F09EFEAB
:102FF8000023C4F81832002010BD38B504460A234F
:103008000322832100F043FE4023032202212046AD
:1030180000F03DFE402302228221204600F037FEC8
:10302800402302220121204600F031FE082303221A
:103038008121204600F02BFE7C2000F073FEC4F8AE
:103048001802D0B1D4F81C32002505731B689847C4
:10305800D4F81822402355670121956720469561C9
:10306800526E00F051FED4F8182240231269022152
:10307800204600F049FE284638BD012038BD38B545
:10308800134690F8FC21032A0BD1D0F818522C7B58
:103098003CB901222A730A46832100F02EFE2046FD
:1030A80038BD022038BD19B1C0F81C120020704785
:1030B80002207047D0F81832002099661A677047C6
:1030C800D0F81832002059667047D0F8182208B591
:1030D80032B14023526E012100F016FE002008BDD7
:1030E800022008BD08B550B90D4800F0A1FE0D48F2
:1030F80000F09EFE0A2000F0B3FE022008BDD0F8C2
:10310800143213B10023C0F8143209B1C0F81012F8
:10311800012380F8FC31027000F060FD002008BD3A
:103128004D8900085589000808B519B1C0F814126E
:10313800002008BD054800F07BFE054800F078FE39
:103148000A2000F08DFE022008BD00BF4D8900084E
:103158006B89000808B500F093FD002008BD08B58C
:10316800D0F814320BB9022008BD1B689847002814
:10317800F9D108BD08B5D0F814325B68984700202B
:1031880008BD38B5044600F50275284600F0E2F897
:103198000123C4F8F43194F80812B4F80E32C4F8D4
:1031A800F83101F01F03012B0CD006D3022B0ED1EE
:1031B8002946204600F016FA0EE02946204600F07F
:1031C800E9F809E02946204600F0F4F904E001F0A6
:1031D8008001204600F06CFD002038BD38B504465B
:1031E800154609BBD0F8F431032B26D1D0F80C11C1
:1031F800D0F8102191420AD98B1A9A4228BF1A4650
:10320800C0F80C3192B2294600F08FFA15E0D0F8D8
:1032180014321B6923B190F8FC21032A00D1984786
:10322800204600F08AFA08E0D0F814329B6923B1EE
:1032380090F8FC21032A00D19847002038BD70B5CA
:10324800134604460E4600293CD1D0F8F421022A40
:1032580030D1C569026A954207D9AA1AC2611946CE
:1032680092B200F04BFA334611E08369B3FBF2F5F2
:1032780002FB15358DB99A420FD8D0F8F821934240
:103288000BD22A4600F03AFA2B46C4F8F8511A46EF
:103298001946204600F038FD0CE0D4F81432DB68FB
:1032A8002BB194F8FC21032A01D1204698472046E7
:1032B80000F04EFA94F80032012B0CD1002384F868
:1032C800003208E0D0F814325B6923B190F8FC2191
:1032D800032A00D19847002070BD38B50446002263
:1032E80011464025402300F0D2FC2B46C4F810516B
:1032F80000228021204600F0CAFC012384F8FC311A
:10330800D4F8183225622BB1D4F8143221795B68CD
:1033180020469847002038BD01740020704790F877
:10332800FC3180F8FD31042380F8FC31002070471F
:1033380090F8FD3180F8FC310020704708B590F80E
:10334800FC21032A04D1D0F81432DB6903B1984771
:10335800002008BD0B7803704B784370CA788B78CF
:1033680003EB022343804A790B7903EB0223838022
:10337800CA798B7903EB0223C380704710B50446E2
:10338800802100F095FC2046BDE81040002100F0A7
:103398008FBC000073B54B7804460D46092B00F22C
:1033A800FF80DFE813F0D100E800FD00E400FD0035
:1033B8007B000A00FD00C100970049880B0A013B09
:1033C800062B00F2ED80DFE813F007000B00170072
:1033D800EB00EB0042004D00D0F810321B6816E0FD
:1033E800027CD0F814320AB99B6A00E0DB6A0DF15E
:1033F80006009847022340E0C9B2052920D8DFE833
:1034080001F0030B0F13171BD0F810325B680DF196
:103418000601207C984731E0D0F810329B68F6E727
:10342800D0F81032DB68F2E7D0F810321B69EEE70B
:10343800D0F810325B69EAE7D0F810329B69E6E70A
:10344800D0F814320DF106029B6B984716E0037C06
:10345800002B40F0A580D0F814320DF106005B6B0C
:1034680098470BE0037C002B40F09A80D0F8143288
:103478000DF106001B6B984707234370BDF8062023
:10348800002A00F09180EB88002B00F08D809A4292
:1034980028BF1A460146ADF8062064E08B88002B49
:1034A8007ED1CB88002B7BD190F8FC318E78032B12
:1034B80006F07F0674D080F8FE61314600F016FCF5
:1034C800204600F03AF90EB1022300E0012384F807
:1034D800FC3169E08978364E0129317060D890F85E
:1034E800FC31022B02D0032B08D059E0002953D01D
:1034F80001210323416080F8FC310FE031B9022338
:1035080080F8FC314160FFF735FE45E0416801294C
:1035180042D0C9B2FFF72EFE317861602046FFF72E
:103528001EFE022838D13BE0CA88012A38D190F81B
:10353800FC31022B03D0032B32D1011D13E00146CD
:10354800002341F8083F0EE090F8FC31023B012BC4
:1035580026D80123C360D0F804320BB10323C3601B
:10356800022204F10C01204600F0BBF81CE04B8855
:10357800012B19D108E090F8FC31023B012B0FD840
:103588004B88012B10D10023C4F80432D4F814322C
:1035980029469B6820469847204600F0CEF803E06D
:1035A80029462046FFF7EAFE002002B070BD00BFA2
:1035B800E806002038B590F8FC310446032B0D4688
:1035C8000CD10B79052B09D8D0F814329B68984791
:1035D800EB882BB9204600F0B0F801E0FFF7CEFEEB
:1035E800002038BD70B50A788E8802F06002202A63
:1035F80004460D46F3B204D1D0F814329B689847BC
:1036080051E04A78012A10D026D3032A4BD190F8EA
:10361800FC21022A27D0032A43D14A8892B95E06A0
:1036280010D0194600F044FB0CE090F8FC21022A67
:1036380019D0032A35D14A88AABB590608D0194699
:1036480000F03DFBD4F8143229469B682046984781
:10365800204600F072F826E090F8FC21022A02D0F9
:10366800032A06D01DE05A061DD0194600F020FB9B
:1036780019E003F07F0516F0800F00EB05151946D9
:1036880014BF143505F5827500F020FB10B1012335
:103698002B6000E0286002222946204600F021F82D
:1036A80001E0FFF76BFE002070BD30B5C0B10546E4
:1036B8002B1A15F8014BDBB2002CF9D15B00023351
:1036C80013800B7003234B700138022310F8015F3D
:1036D80035B15A1CCD54D2B20233DBB28C54F5E763
:1036E80030BD134610B50222C0F8F42183610A46A2
:1036F800C361002100F001FB002010BD08B513468E
:103708000A46002100F0F9FA002008BD134610B55A
:103718000322C0F8F421C0F808310A46C0F80C3179
:10372800002100F0F1FA002010BD08B513460A4642
:10373800002100F0E9FA002008BD08B50423C0F80C
:10374800F43100231A46194600F0D7FA002008BDC4
:1037580008B50523C0F8F43100231A46194600F0CD
:10376800D3FA002008BD70478AB201460148FEF727
:1037780043BE00BFAC07002038B5002404F1C805DB
:10378800FDF7EEFBA8420446FAD301210148FDF7F4
:103798005FFDF3E70018014010B5012396B00C93C4
:1037A8004FF480330D930022022414930CA84FF495
:1037B800E0130E9213941593FEF73EF908B1FFF744
:1037C800DBFF0F23019303904FF48063059021469C
:1037D80001A802940493FEF7D7FB0028EFD1102329
:1037E8000B9006A80693FEF7B7FC04460028E6D11E
:1037F800FEF77CFC4FF47A73B0FBF3F0FDF716FC90
:103808000420FDF729FC224621464FF0FF30FDF742
:10381800CDFB16B010BD00002DE9F04389B0FDF7CF
:1038280085FBFFF7B9FF4A4B05219A69494842F0E1
:1038380040029A619A69012502F040020192019AB8
:103848009A69454C42F010029A619A694FF4E13640
:1038580002F010020292029A9A6942F004029A61F6
:103868009B69002203F004030393039BFDF7ECFC20
:103878000523049304A90223364807930595FDF709
:10388800FDFB2A4629463348FDF7DEFC2A4604217B
:103898003048FDF7D9FC314B0C2284E8480020461B
:1038A8000023A360E36023616261A361E361FEF723
:1038B80077FD064608B1FFF75FFF0246294625480F
:1038C800FDF7C2FC00F0EAF8324604212148FDF772
:1038D800BBFCFDF745FB26468046214F214D94F859
:1038E80039309A0606D4204980221B483960FEF7F1
:1038F800ADFD0CE096F83930DB0608D43868B36AB9
:10390800834204D90121FFF72FFFB36A3B60FDF71B
:1039180027FB01232B704FF47A73B0FBF3F36B7022
:103928001B0AEB700023AB70AB80EB802B8108F592
:10393800FA739842814604D304210648FDF788FCAF
:10394800C8460A2207490948FFF799FBC7E700BF9D
:103958000010024000180140AC0700200038014068
:103968001C010020EA060020EC0700206C0800205B
:10397800204B07B59A69032042F001029A619B69BE
:1039880003F001030193019BFDF7FEFA00221146A3
:103998006FF00B00FDF70AFB002211466FF00A00DA
:1039A800FDF704FB002211466FF00900FDF7FEFA4F
:1039B800002211466FF00400FDF7F8FA00221146C4
:1039C8006FF00300FDF7F2FA002211466FF00100D4
:1039D800FDF7ECFA002211464FF0FF30FDF7E6FA4A
:1039E800054A536823F0E06343F00073536003B063
:1039F8005DF804FB001002400000014010B50268A9
:103A0800164B86B09A4227D103F558439A6902A902
:103A180042F480429A619B69114803F48043019300
:103A2800019B4FF4007302930223039303230024A2
:103A38000593FDF723FB4FF4806302A9084802931E
:103A480003940494FDF71AFB252022462146FDF72E
:103A5800ADFA2520FDF7DEFA06B010BD00380140AA
:103A6800000801407047FEE7FEE7FEE7FEE7704703
:103A78007047704708B5FDF76BFABDE80840FDF7D9
:103A8800F8BA00000148FDF70BBD00BF100B00207D
:103A98000148FEF70FBD00BFAC07002010B5094C68
:103AA800002209492046FFF71DFB08492046FFF779
:103AB8003BFB20460649FFF7F6FA2046BDE81040D2
:103AC800FFF748BB6C0800203001002004000020EC
:103AD80020010020002070470020704770B5044680
:103AE8000E46074D01462846FFF7EAFA2846FFF733
:103AF800ECFA31682046FFF737FE002070BD00BFA2
:103B08006C08002010B5064C002206492046FFF735
:103B1800D1FA05492046FFF7D3FA002010BD00BFAF
:103B28006C080020D00A0020900A002007B50D4B31
:103B380002689A4212D103F5DA33DA69142042F4A2
:103B48000002DA61DB69002203F4000301931146E5
:103B5800019BFDF72BFA1420FDF75CFA03B05DF822
:103B680004FB00BF005C004000F57B71D0F81C042A
:103B7800FFF707BB00EB4113D3F81C22D0F81C0455
:103B8800FFF72CBB00EB4113DA6BD0F81C04FFF7EE
:103B980056BBD0F81C04FFF7D1BB10B50446012171
:103BA800D0F81C04FFF7B8FBD4F81C04BDE810409B
:103BB800FFF793BB10B50446D0F81C04FFF7AFFB22
:103BC800A36923B1024A136943F00603136110BDC8
:103BD80000ED00E0D0F81C04FFF7AABB10B50446BE
:103BE800254A264808234FF0020CC0F81C4480E8F8
:103BF8000C10C4F820020023C3608361C361036210
:103C0800FDF72AFB08B1FFF7B7FD0022114638235C
:103C1800D4F82002FDF7F8FE782300228021D4F89A
:103C28002002FDF7F1FEB82300228121D4F82002FA
:103C3800FDF7EAFEF82300228221D4F82002FDF7DE
:103C4800E3FE4FF49C7300228321D4F82002FDF791
:103C5800DBFE4FF4BC7300220121D4F82002FDF7EB
:103C6800D3FE4FF4DC7300220221D4F82002FDF7C2
:103C7800CBFE002010BD00BF005C0040100B0020F0
:103C880008B5D0F82002FDF751FB002008BD10B59B
:103C98001C46D0F8200213462246FDF772FB00208E
:103CA80010BD08B5D0F82002FDF78EFB002008BD36
:103CB80008B5D0F82002FDF75BFE002008BD08B566
:103CC800D0F82002FDF77DFE002008BD0A06D0F8D6
:103CD800203245BF01F07F0103EB411303EB411391
:103CE80093F82A0058BF93F80A02704708B5D0F82D
:103CF8002002FDF732FB002008BD08B5D0F82002ED
:103D0800FDF7AEFB002008BD08B5D0F82002FDF78E
:103D18007CFB002008BD08B5D0F82002FDF799FB10
:103D280008BD000000487047F4060020704770473F
:103D380012230B80004870475001002004230B8099
:103D4800004870474C01002010B5044C0A4604484E
:103D58002146FFF7AAFC204610BD00BF300F002007
:103D68008089000810B5044C0A4604482146FFF72C
:103D78009CFC204610BD00BF300F0020938900082E
:103D880010B5044C0A4604482146FFF78EFC20462D
:103D980010BD00BF300F0020B089000810B5044CDA
:103DA8000A4604482146FFF780FC204610BD00BFA4
:103DB800300F0020BD89000810B5044C0A4604489D
:103DC8002146FFF772FC204610BD00BF300F0020CF
:103DD800CF8900080E4B70B51E460E4C0025E41A1C
:103DE800A410A54204D056F8253098470135F8E7C5
:103DF80004F056FD084B094C1E46E41AA410002591
:103E0800A54204D056F8253098470135F8E770BD2B
:103E1800DC8B0008DC8B0008DC8B0008E08B0008DA
:103E280003460244934202D003F8011BFAE77047A5
:103E38000FB40A4B13B51C6824B1A36913B9204603
:103E480002F0B0FF05AB049AA1682046019300F088
:103E5800F7FF02B0BDE8104004B0704754020020DC
:103E680038B5084B05461C6824B1A36913B9204628
:103E780002F098FFA26829462046BDE8384003F0C2
:103E8800BFBE00BF540200200EB400B54FF402714B
:103E98009CB0ADF814106FF00041049107914FF6F3
:103EA800FF711DAB02900690084853F8042BADF83B
:103EB8001610006802A9019300F00AF8029B00227C
:103EC8001A701CB05DF804EB03B070475402002070
:103ED8002DE9F04FBDB08B4609921F46814603F08D
:103EE8000FF9036818461193FCF79AF9BBF80C30E0
:103EF8000A90190615D5DBF8103093B940214846C9
:103F080003F072F9CBF80000CBF8100030B90C239D
:103F1800C9F800304FF0FF3000F08BBF4023CBF8DA
:103F2800143000232CAC1F942193209308930C93F6
:103F38000D93139312930E93099D2B4613F8012B9F
:103F48001AB1252A01D01D46F7E7099BEE1A17D0AA
:103F580084E84800219B33442193209B0133072B9D
:103F6800209301DC083408E01FAA5946484603F0AC
:103F7800D0FE002840F022862CAC0E9B33440E93D2
:103F88002B78002B00F0138600226B1C1146154677
:103F98008DF85F204FF0FF3A0B920A205E1C1B78C9
:103FA80009960693069B203B582B00F25982DFE8BE
:103FB80013F05C00570257026B0057025702570272
:103FC8005702570257026E005900570278007B00CB
:103FD80057029F00A200A200A200A200A200A20015
:103FE800A200A200A2005702570257025702570226
:103FF80057025702570257025702D200FE005702D3
:10400800FE005702570257025702B50057025702DF
:104018004301570257025702570257028A015702B3
:1040280057026600570257025702570257025702B3
:104038005702570257025702C9006100FE00FE00EE
:10404800FE00B800610057025702BB005702250165
:1040580045016001C6005702710157028C015702E1
:104068005702A40101222B2102E009B901222021D3
:10407800099B93E7002A73D08DF85F1070E00AB1AE
:104088008DF85F10A94B3CE145F00105F0E73E686B
:104098003B1D002E0B9601DB1F46E9E71F467642C3
:1040A8000B9645F00405E3E7099B5E1C1B782A2B59
:1040B800069301D000230AE0D7F800A03B1DBAF10F
:1040C800000F1F460996D3DA4FF0FF3AD0E709965A
:1040D800069E303E092E08D800FB0363099EB646AB
:1040E8001EF8016B06967646F1E743EAE37A59E74C
:1040F80045F08005BCE700230B93069B0B9E303BE5
:1041080000FB06330B93099B1E4616F8013B0693EA
:10411800069B0996303B092BEFD943E745F0080584
:10412800A6E745F04005A3E7099B1B786C2B03D154
:10413800099B0133099302E045F0100598E745F023
:10414800200595E73B1D07933B6800268DF88830CE
:104158008DF85F6093E10AB18DF85F1045F01005A6
:10416800AA0608D5073727F0070707F108030793BA
:10417800D7E900670EE015F0100F07F1040302D02D
:1041880007933E6805E03E6815F0400F079318BF97
:1041980036B2F717002E77F1000380F2E2807642FC
:1041A8004FF02D0367EB47078DF85F30D9E00AB170
:1041B8008DF85F10073727F0070707F10803079303
:1041C8003B684FF0FF320C937B680C9F0D930D9B5F
:1041D800384623F000463146554BFCF77BFC002857
:1041E80040F0F6844FF0FF32514B38463146FCF729
:1041F80053FC002840F0EC8400F004BE0AB18DF8AE
:104208005F1015F0200F07F1040307D00E993A68E4
:10421800CE1708463146C2E900010BE0E90606D48C
:104228006A0604D53A68BDF83810118002E03A6889
:104238000E9911601F467FE645F0100515F0200322
:1042480009D0073727F0070707F108030793D7E9CD
:104258000067002381E03A1D15F01001079205D18F
:1042680015F0400302D03E880027F2E73E68002799
:1042780073E03B1D079330238DF860302D4B782277
:104288003E681393002745F002058DF8612002234C
:10429800069262E000263B1DB2450793D7F80080DE
:1042A8008DF85F600ADB52463146404603F0B8F9A4
:1042B800002800F0EA80C8EB000AE7E04046FBF778
:1042C800AFFF8246E2E045F01005AE0608D5073795
:1042D80027F0070707F108030793D7E900670AE003
:1042E8003B1D15F0100F079303D1680601D53E88D2
:1042F80000E03E68002701232FE00AB18DF85F1027
:104308000C4BA906139308D5073727F0070707F1C1
:1043180008030793D7E9006710E03B1D15F0100F5D
:10432800079309D16A0607D53E8806E0048A000883
:10433800FFFFEF7F158A00083E680027EB070BD5C3
:1043480056EA070308D030238DF860309DF81830FE
:1043580045F002058DF86130022300228DF85F20B8
:1043680000E00123BAF1000FC0F25D8556EA0702AA
:1043780025F0800103D1BAF1000F5FD006E00D46A9
:10438800012B25D0022B46D0294607E00D46012BEC
:1043980022D0022B3DD02946002600270DF1B00877
:1043A800F20842EA4772F80806F00703074616467D
:1043B800303356EA070208F8013DF1D1E80748D53D
:1043C800302B46D0302308F8013C08F1FF3840E094
:1043D800002F08BF0A2E05D230360DF1F00808F874
:1043E800416D29E00DF1B008304639460A22002314
:1043F800FCF7AEFB303208F8012D00233046394671
:104408000A22FCF7A5FB06460F4656EA0703EBD13E
:1044180012E0002600270DF1B008139A06F00F03EA
:10442800D35C3A0908F8013D330943EA07731E468D
:10443800174656EA0703F0D129460AE03BB9EA07CE
:1044480005D50DF1F008302308F8413D01E00DF1E4
:10445800B0082CAB56460D46C8EB030A002716E0F9
:104468000AB18DF85F10069B002B00F0A0839DF821
:10447800183000268DF888308DF85F6007974FF068
:10448800010A37460DF1880801E0064637465645C9
:104498003346B8BF53460F939DF85F3013B10F9B57
:1044A80001330F9315F0020314931EBF0F9B0233C1
:1044B8000F9315F08403159339D10B9B0F9A9B1A10
:1044C800002B109333DD109B102BA34B236018DDBA
:1044D80010236360219B10332193209B0133072B0A
:1044E800209301DC083408E01FAA5946484603F027
:1044F80010FC002840F062832CAC109B103B1093FA
:10450800E1E7109B109A6360219B13442193209B41
:104518000133072B209301DC083408E01FAA594611
:10452800484603F0F6FB002840F048832CAC9DF881
:104538005F30BBB10DF15F03236001236360219BF2
:1045480001332193209B0133072B209301DC08348E
:1045580008E01FAA5946484603F0DBFB002840F054
:104568002D832CAC149BB3B118AB2360022363607A
:10457800219B02332193209B0133072B209301DCDD
:10458800083408E01FAA5946484603F0C2FB002831
:1045980040F014832CAC159B802B39D10B9B0F9AC0
:1045A8009B1A002B109333DD109B102B6B4B236051
:1045B80018DD10236360219B10332193209B013366
:1045C800072B209301DC083408E01FAA5946484607
:1045D80003F09FFB002840F0F1822CAC109B103BAD
:1045E8001093E1E7109B109A6360219B1344219379
:1045F800209B0133072B209301DC083408E01FAA15
:104608005946484603F085FB002840F0D7822CAC79
:10461800CAEB0606002E2EDD504B102E236016DD49
:1046280010236360219B10332193209B0133072BB8
:10463800209301DC083408E01FAA5946484603F0D5
:1046480068FB002840F0BA822CAC103EE4E7209BBF
:10465800219801336660072B06442196209301DCDC
:10466800083408E01FAA5946484603F052FB0028C0
:1046780040F0A4822CACEB0514D4219B84E80005FF
:1046880053442193209B0133072B209340F3458209
:104698001FAA5946484603F03CFB002840F08E828A
:1046A8002CAC3BE2069B652B40F3AE810022002335
:1046B8000C980D99FCF7DCF900285ED0284B236094
:1046C80001236360219B01332193209B0133072B36
:1046D800209301DC083408E01FAA5946484603F035
:1046E80018FB002840F06A822CAC199B089A934268
:1046F80002DBEE0740F11282119B0A9A23600A9BA3
:104708006360219B13442193209B0133072B209343
:1047180001DC083408E01FAA5946484603F0F9FAB4
:10472800002840F04B822CAC089B5E1E002E40F304
:10473800F5810A4F4FF01008102E40F35981219B44
:1047480084E8800110332193209B0133072B2093A9
:1047580008DC08340FE000BF288A0008E489000854
:10476800268A00081FAA5946484603F0D2FA0028AC
:1047780040F024822CAC103EDEE7199B002B7CDC39
:104788009F4B236001236360219B01332193209B6E
:104798000133072B209301DC083408E01FAA59468F
:1047A800484603F0B6FA002840F008822CAC199B62
:1047B80023B9089B13B9E80740F1B081119B0A9A05
:1047C80023600A9B6360219B13442193209B013340
:1047D800072B209302DC04F1080308E01FAA5946BE
:1047E800484603F096FA002840F0E8812CAB199E61
:1047F8007642002E30DD834F1024102E16DD219ACC
:104808001F6010322192209A5C600132072A2092A0
:1048180001DC083308E01FAA5946484603F079FA34
:10482800002840F0CB812CAB103EE6E7754A83E8C0
:104838004400219A1644209A21960132072A209290
:1048480001DC083308E01FAA5946484603F061FA1C
:10485800002840F0B3812CAB089A08995A60219A35
:10486800C3F800800A442192209A0132072A209234
:104878003FF70EAF03F1080450E1089BBB42A8BF05
:104888003B46002B1E4615DD6360219BC4F8008063
:1048980033442193209B0133072B209301DC0834F8
:1048A80008E01FAA5946484603F033FA002840F0AA
:1048B80085812CAC002EB4BF3E46BE1B002E30DDD9
:1048C8004FF0100A4F4B102E236016DD219BC4F8C1
:1048D80004A010332193209B0133072B209301DC84
:1048E800083408E01FAA5946484603F012FA00287F
:1048F80040F064812CAC103EE4E7219B66601E44C6
:10490800209B21960133072B209301DC083408E013
:104918001FAA5946484603F0FCF9002840F04E818A
:104928002CAC199B089A4744934201DBE90717D539
:10493800119B0A9A23600A9B6360219B134421936D
:10494800209B0133072B209301DC083408E01FAAC1
:104958005946484603F0DDF9002840F02F812CAC79
:10496800089B089A08EB0306199BF61BD31A9E426C
:10497800A8BF1E46002E14DD219B276033442193D7
:10498800209B66600133072B209301DC083408E084
:104998001FAA5946484603F0BCF9002840F00E818A
:1049A8002CAC199B089A002EA2EB0303B4BF1E4639
:1049B8009E1B002E40F3B280124F4FF01008102EAD
:1049C80016DD219B84E8800110332193209B01335D
:1049D800072B209301DC083408E01FAA59464846F3
:1049E80003F097F9002840F0E9802CAC103EE6E788
:1049F800044B84E84800219B1E44219642E600BFF0
:104A0800268A0008E4890008089B012B01DCEA07D4
:104A180073D501236360219BC4F80080013321937F
:104A2800209B0133072B209301DC083408E01FAAE0
:104A38005946484603F06DF9002840F0BF802CAC79
:104A4800119B0A9A23600A9B6360219B134421935C
:104A5800209B0133072B209301DC083408E01FAAB0
:104A68005946484603F055F9002840F0A7802CAC79
:104A7800002300220C980D99FBF7FAFF089B5E1E95
:104A8800B8B908F1010384E84800219B089A013B62
:104A980013442193209B0133072B209334DD1FAA55
:104AA8005946484603F035F9002840F087802CAC79
:104AB8002BE0002E29DD8F4F4FF01008102E15DD4A
:104AC800219B84E8800110332193209B0133072B1D
:104AD800209301DC083407E01FAA5946484603F032
:104AE80018F900286AD12CAC103EE7E7814B84E81E
:104AF8004800219B1E442196CCE701236360219B3B
:104B0800C4F800800133C4E708341BAB2360129B50
:104B1800129A6360219B1344B3E508346B070BD4E6
:104B28000E9B0B9A0F998A42ACBF9B185B180E9389
:104B3800219B002B35D02EE00B9B0F9A9D1A002D40
:104B4800EEDD10266C4B102D236013DD219B666073
:104B580010332193209B0133072B209301DC083469
:104B680006E01FAA5946484603F0D3F830BB2CACE0
:104B7800103DE7E7219B65601D44209B219501338B
:104B8800072B2093CCDD1FAA5946484603F0C1F8ED
:104B98000028C5D012E01FAA5946484603F0B9F8C4
:104BA80060B900232093079F2CACFFF7C5B9219B60
:104BB80023B11FAA5946484603F0ABF8BBF80C309E
:104BC80013F0400F0E9B18BF4FF0FF33184630E12B
:104BD8000C9A0D9B0C980D99FBF77CFF60B1474B25
:104BE800474A069925F080054729CCBF9046984644
:104BF8004FF0030A002649E4BAF1FF3F0AD0069BAA
:104C080023F02003472B07D1BAF1000F08BF4FF05C
:104C1800010A01E04FF0060A45F4807315930D9BD5
:104C28001F1E0C9BA8BF10970F93BDBF3B4603F1F7
:104C3800004310930023B8BF2D231493069B23F041
:104C48002007462F04D0452F05D10AF1010603E0BD
:104C58005646032301E0564602231DAA04921AAAC7
:104C6800039219AA02928DE848000F9A109B4846B1
:104C780001F006FA472F804602D1EB0740F1CF80BA
:104C880008EB0603462F089311D198F80030302B13
:104C980009D1002200230F981099FBF7E9FE10B9FB
:104CA800C6F101061996089A199B1A44089200221F
:104CB80000230F981099FBF7DBFE08B9302202E0B9
:104CC800089B1D9307E01D9B0899994203D9591C1D
:104CD8001D911A70F7E71D9B472FC8EB0303089334
:104CE80010D1199BDF1C01DB9A456ADA069B023B4F
:104CF80006930AE0E4890008288A0008FC8900086D
:104D0800008A0008069B652B44DC199B9DF8182037
:104D1800013B002B1993B8BF5B428DF86C20B4BFE0
:104D28002D222B22092B8DF86D201DDD0DF17B0224
:104D38000A2093FBF0F100FB1133092903F130033A
:104D480002F8013D0B46F4DC303302F8013C511EF9
:104D58000DF16E030DF17B0081421A460BD211F85A
:104D6800012B03F8012BF7E7302213448DF86E204E
:104D78008DF86F301CAA1BABD31A089A1293012A1C
:104D880003EB020A02DC15F0010732D00A9B002768
:104D98009A442EE0069B662B13D1199B002B07DD46
:104DA800BAF1000F01D1EE0721D50A9A134406E0A3
:104DB800BAF1000F01D1ED0714D50A9B0133534412
:104DC80015E0199B089A934203DBE8070DD50A9A68
:104DD80006E0089A0A99002B0A4405DCC3F101038E
:104DE800134402E0012302E01346672206929A4622
:104DF800199F149B13B12D238DF85F30159D002644
:104E0800FFF745BB002200230C980D99FBF73AFEEB
:104E180010B12D238DF85F30074B084AE1E61D9B42
:104E28001B1A08935DE756EA07027FF4A9AAFFF761
:104E3800AEBA3DB0BDE8F08FF4890008F8890008E3
:104E48002DE9F04FBDB08B4609921C461F4681469E
:104E580002F056F9036818461193FBF7E1F90A9036
:104E6800B9F1000F05D0D9F8183013B9484601F048
:104E780099FF964B9B4502D1D9F804B00AE0944BB0
:104E88009B4502D1D9F808B004E0924B9B4508BF76
:104E9800D9F80CB0BBF90C30980409D4DBF86420BD
:104EA80043F4005322F40052ABF80C30CBF86420E2
:104EB800BBF80C30190709D5DBF8103033B1BBF853
:104EC8000C3003F01A030A2B16D109E0594648465C
:104ED80000F0DAFF0028F2D04FF0FF3000F097BF63
:104EE800BBF90E30002B07DB2346099A5946484682
:104EF80000F094FF00F08BBF00232CAC1F9421938B
:104F0800209308930C930D93139312930E93099D7A
:104F18002B4613F8012B1AB1252A01D01D46F7E7B5
:104F2800099BEE1A17D084E84800219B334421934B
:104F3800209B0133072B209301DC083408E01FAACB
:104F48005946484602F064FF002840F027862CACFA
:104F58000E9B33440E932B78002B00F0188600220A
:104F68006B1C114615468DF85F204FF0FF3A0B92E7
:104F78000A205E1C1B7809960693069B203B582B3B
:104F880000F25B82DFE813F05C00590259026B0003
:104F98005902590259025902590259026E00590020
:104FA800590278007B0059029F00AA00AA00AA00B3
:104FB800AA00AA00AA00AA00AA00AA005902590237
:104FC8005902590259025902590259025902590201
:104FD800DA0006015902060159025902590259021A
:104FE800BD00590259024B0159025902590259028E
:104FF800590292015902590266005902590259028E
:105008005902590259025902590259025902D1004A
:105018006100060106010601C0006100590259023B
:10502800C30059022D014D016801CE0059027901D2
:105038005902940159025902AC0101222B2102E0C4
:1050480009B901222021099B93E7002A7BD08DF81A
:105058005F1078E00AB18DF85F101F4B44E145F00E
:105068000105F0E73E683B1D002E0B9601DB1F464D
:10507800E9E71F4676420B9645F00405E3E7099BEE
:105088005E1C1B782A2B069301D000230AE0D7F870
:1050980000A03B1DBAF1000F1F460996D3DA4FF066
:1050A800FF3AD0E70996069E303E092E08D800FB45
:1050B8000363099EB6461EF8016B06967646F1E72D
:1050C80043EAE37A59E745F08005BCE7688A0008B7
:1050D800888A0008A88A0008048A000800230B931D
:1050E800069B0B9E303B00FB06330B93099B1E4629
:1050F80016F8013B0693069B0996303B092BEFD91E
:105108003BE745F008059EE745F040059BE7099B0E
:105118001B786C2B03D1099B0133099302E045F0FE
:10512800100590E745F020058DE73B1D07933B6888
:1051380000268DF888308DF85F608DE10AB18DF812
:105148005F1045F01005AA0608D5073727F00707AE
:1051580007F108030793D7E900670EE015F0100F71
:1051680007F1040302D007933E6805E03E6815F096
:10517800400F079318BF36B2F717002E77F10003D8
:1051880080F2DC8076424FF02D0367EB47078DF8FD
:105198005F30D3E00AB18DF85F10073727F00707B3
:1051A80007F1080307933B684FF0FF320C937B68C5
:1051B8000C9F0D930D9B384623F000463146A94BB2
:1051C800FBF788FC002840F0F0844FF0FF32A54B35
:1051D80038463146FBF760FC002840F0E68400F0D2
:1051E800FFBD0AB18DF85F1015F0200F07F1040319
:1051F80007D00E993A68CE1708463146C2E9000131
:105208000BE0E90606D46A0604D53A68BDF83810FA
:10521800118002E03A680E9911601F4677E645F062
:10522800100515F0200309D0073727F0070707F105
:1052380008030793D7E9006700237BE03A1D15F0C0
:105248001001079205D115F0400302D03E880027CF
:10525800F2E73E6800276DE03B1D079330238DF889
:105268006030814B78223E681393002745F0020591
:105278008DF86120022306925CE000263B1DB245B2
:105288000793D7F800808DF85F600ADB52463146F5
:10529800404602F0C5F9002800F0E880C8EB000A93
:1052A800E5E04046FAF7BCFF8246E0E045F010052D
:1052B800AE0608D5073727F0070707F10803079355
:1052C800D7E900670AE03B1D15F0100F079303D1DB
:1052D800680601D53E8800E03E680027012329E0E2
:1052E8000AB18DF85F10604BA906139308D50737EC
:1052F80027F0070707F108030793D7E900670AE0D3
:105308003B1D15F0100F079303D16A0601D53E889F
:1053180000E03E680027EB070BD556EA070308D0E4
:1053280030238DF860309DF8183045F002058DF86F
:105338006130022300228DF85F2000E00123BAF1DA
:10534800000FC0F25E8556EA070225F0800103D1FE
:10535800BAF1000F5FD006E00D46012B25D0022BD5
:1053680046D0294607E00D46012B22D0022B3DD01E
:105378002946002600270DF1B008F20842EA4772D4
:10538800F80806F0070307461646303356EA0702C0
:1053980008F8013DF1D1E80748D5302B46D0302335
:1053A80008F8013C08F1FF3840E0002F08BF0A2E3A
:1053B80005D230360DF1F00808F8416D29E00DF1FD
:1053C800B008304639460A220023FBF7C1FB3032C9
:1053D80008F8012D0023304639460A22FBF7B8FBAE
:1053E80006460F4656EA0703EBD112E000260027CF
:1053F8000DF1B008139A06F00F03D35C3A0908F8C8
:10540800013D330943EA07731E46174656EA070368
:10541800F0D129460AE03BB9EA0705D50DF1F008B5
:10542800302308F8413D01E00DF1B0082CAB564699
:105438000D46C8EB030A00271AE00AB18DF85F1081
:10544800069B002B00F0A3839DF8183000268DF8EA
:1054580088308DF85F6007974FF0010A37460DF1E5
:10546800880805E0FFFFEF7F158A000806463746E3
:1054780056453346B8BF53460F939DF85F3013B176
:105488000F9B01330F9315F0020314931EBF0F9B5C
:1054980002330F9315F08403159339D10B9B0F9AA0
:1054A8009B1A002B109333DD109B102BA24B23600B
:1054B80018DD10236360219B10332193209B013357
:1054C800072B209301DC083408E01FAA59464846F8
:1054D80002F09EFC002840F061832CAC109B103B2E
:1054E8001093E1E7109B109A6360219B134421936A
:1054F800209B0133072B209301DC083408E01FAA06
:105508005946484602F084FC002840F047832CACFA
:105518009DF85F30BBB10DF15F0323600123636029
:10552800219B01332193209B0133072B209301DC1E
:10553800083408E01FAA5946484602F069FC0028CA
:1055480040F02C832CAC149BB3B118AB236002231E
:105558006360219B02332193209B0133072B209307
:1055680001DC083408E01FAA5946484602F050FCFE
:10557800002840F013832CAC159B802B39D10B9B52
:105588000F9A9B1A002B109333DD109B102B6B4B3B
:10559800236018DD10236360219B10332193209B27
:1055A8000133072B209301DC083408E01FAA594671
:1055B800484602F02DFC002840F0F0822CAC109BED
:1055C800103B1093E1E7109B109A6360219B1344F2
:1055D8002193209B0133072B209301DC083408E03A
:1055E8001FAA5946484602F013FC002840F0D6820C
:1055F8002CACCAEB0606002E2EDD504B102E236075
:1056080016DD10236360219B10332193209B013307
:10561800072B209301DC083408E01FAA59464846A6
:1056280002F0F6FB002840F0B9822CAC103EE4E70B
:10563800209B219801336660072B0644219620930E
:1056480001DC083408E01FAA5946484602F0E0FB8E
:10565800002840F0A3822CACEB0514D4219B84E8ED
:10566800000553442193209B0133072B209340F3DB
:1056780044821FAA5946484602F0CAFB002840F057
:105688008D822CAC3AE2069B652B40F3AD8100225B
:1056980000230C980D99FBF7EBF900285DD0284BF7
:1056A800236001236360219B01332193209B0133F5
:1056B800072B209301DC083408E01FAA5946484606
:1056C80002F0A6FB002840F069822CAC199B089ACE
:1056D800934202DBEF0740F11182119B0A9A236083
:1056E8000A9B6360219B13442193209B0133072B62
:1056F800209301DC083408E01FAA5946484602F006
:1057080087FB002840F04A822CAC089B5E1E002EC6
:1057180040F3F481094F4FF01008102E40F35881E0
:10572800219B84E8800110332193209B0133072BB0
:10573800209307DC08340EE0388A0008488A0008FD
:10574800268A00081FAA5946484602F061FB00282D
:1057580040F024822CAC103EDFE7199B002B7CDC48
:105768009F4B236001236360219B01332193209B7E
:105778000133072B209301DC083408E01FAA59469F
:10578800484602F045FB002840F008822CAC199BE3
:1057980023B9089B13B9EE0740F1B081119B0A9A0F
:1057A80023600A9B6360219B13442193209B013350
:1057B800072B209302DC04F1080308E01FAA5946CE
:1057C800484602F025FB002840F0E8812CAB199EE2
:1057D8007642002E30DD834F1024102E16DD219ADC
:1057E8001F6010322192209A5C600132072A2092B1
:1057F80001DC083308E01FAA5946484602F008FBB6
:10580800002840F0CB812CAB103EE6E7754A83E8D0
:105818004400219A1644209A21960132072A2092A0
:1058280001DC083308E01FAA5946484602F0F0FA9E
:10583800002840F0B3812CAB089A08995A60219A45
:10584800C3F800800A442192209A0132072A209244
:105858003FF70FAF03F1080450E1089BBB42A8BF14
:105868003B46002B1E4615DD6360219BC4F8008073
:1058780033442193209B0133072B209301DC083408
:1058880008E01FAA5946484602F0C2FA002840F02C
:1058980085812CAC002EB4BF3E46BE1B002E30DDE9
:1058A8004FF0100A4F4B102E236016DD219BC4F8D1
:1058B80004A010332193209B0133072B209301DC94
:1058C800083408E01FAA5946484602F0A1FA002801
:1058D80040F064812CAC103EE4E7219B66601E44D6
:1058E800209B21960133072B209301DC083408E024
:1058F8001FAA5946484602F08BFA002840F04E810C
:105908002CAC199B089A4744934201DBE80717D54A
:10591800119B0A9A23600A9B6360219B134421937D
:10592800209B0133072B209301DC083408E01FAAD1
:105938005946484602F06CFA002840F02F812CACFA
:10594800089B089A08EB0306199BF61BD31A9E427C
:10595800A8BF1E46002E14DD219B276033442193E7
:10596800209B66600133072B209301DC083408E094
:105978001FAA5946484602F04BFA002840F00E810B
:105988002CAC199B089A002EA2EB0303B4BF1E4649
:105998009E1B002E40F3B280124F4FF01008102EBD
:1059A80016DD219B84E8800110332193209B01336D
:1059B800072B209301DC083408E01FAA5946484603
:1059C80002F026FA002840F0E9802CAC103EE6E709
:1059D800044B84E84800219B1E44219643E600BFFF
:1059E800268A0008488A0008089B012B01DCE90781
:1059F80073D501236360219BC4F800800133219390
:105A0800209B0133072B209301DC083408E01FAAF0
:105A18005946484602F0FCF9002840F0BF802CACFB
:105A2800119B0A9A23600A9B6360219B134421936C
:105A3800209B0133072B209301DC083408E01FAAC0
:105A48005946484602F0E4F9002840F0A7802CACFB
:105A5800002300220C980D99FBF70AF8089B5E1E9C
:105A6800B8B908F1010384E84800219B089A013B72
:105A780013442193209B0133072B209334DD1FAA65
:105A88005946484602F0C4F9002840F087802CACFB
:105A98002BE0002E29DD8E4F4FF01008102E15DD5B
:105AA800219B84E8800110332193209B0133072B2D
:105AB800209301DC083407E01FAA5946484602F043
:105AC800A7F900286AD12CAC103EE7E7804B84E8A0
