:020000040800F2
:1000000000000120790E0008AD380008AF38000864
:10001000B1380008B3380008B53800080000000007
:10002000000000000000000000000000B7380008D9
:10003000B938000800000000BB380008BD380008CF
:10004000C10E0008C10E0008C10E0008C10E000854
:10005000C10E0008C10E0008C10E0008C10E000844
:10006000C10E0008C10E0008C10E0008C10E000834
:10007000C10E0008C10E0008C10E0008C10E000824
:10008000C10E0008C10E0008C10E0008C10E000814
:10009000CD380008C10E0008C10E0008C10E0008CE
:1000A000C10E0008C10E0008C10E0008C10E0008F4
:1000B000C10E0008C10E0008C10E0008C10E0008E4
:1000C000C10E0008C10E0008C10E0008C10E0008D4
:1000D000C10E0008D9380008C10E0008C10E000882
:1000E000C10E0008C10E0008C10E0008C10E0008B4
:1000F000C10E0008C10E0008C10E0008C10E0008A4
:10010000C10E0008C10E0008C10E0008C10E000893
:10011000C10E0008C10E0008C10E0008C10E000883
:10012000C10E0008C10E0008C10E0008C10E000873
:1001300000000000000000000000000000000000BF
:1001400000000000000000000000000000000000AF
:10015000000000000000000000000000000000009F
:10016000000000000000000000000000000000008F
:10017000000000000000000000000000000000007F
:10018000000000000000000000000000000000006F
:10019000000000000000000000000000000000005F
:1001A000000000000000000000000000000000004F
:1001B000000000000000000000000000000000003F
:1001C000000000000000000000000000000000002F
:1001D000000000000000000000000000000000001F
:0401E0005FF8E0F1F3
:1001E80010B5054C237833B9044B13B10448AFF369
:1001F80000800123237010BD3C0600200000000091
:10020800AC75000808B5034B1BB103490348AFF3AD
:10021800008008BD0000000040060020AC75000802
:10022800034613F8012B002AFBD1181A013870472E
:1002380081F0004102E000BF83F0004330B54FEA8F
:1002480041044FEA430594EA050F08BF90EA020FFC
:100258001FBF54EA000C55EA020C7FEA645C7FEA8F
:10026800655C00F0E2804FEA5454D4EB5555B8BFB2
:100278006D420CDD2C4480EA020281EA030382EA23
:10028800000083EA010180EA020281EA0303362DB5
:1002980088BF30BD11F0004F4FEA01314FF4801C88
:1002A8004CEA113102D0404261EB410113F0004F9A
:1002B8004FEA03334CEA133302D0524263EB430351
:1002C80094EA050F00F0A780A4F10104D5F1200EEF
:1002D8000DDB02FA0EFC22FA05F2801841F100014A
:1002E80003FA0EF2801843FA05F359410EE0A5F11E
:1002F80020050EF1200E012A03FA0EFC28BF4CF04F
:10030800020C43FA05F3C01851EBE37101F0004504
:1003180007D54FF0000EDCF1000C7EEB00006EEB11
:100328000101B1F5801F1BD3B1F5001F0CD349089B
:100338005FEA30004FEA3C0C04F101044FEA4452F2
:1003480012F5800F80F09A80BCF1004F08BF5FEA79
:10035800500C50F1000041EB045141EA050130BD59
:100368005FEA4C0C404141EB010111F4801FA4F1FC
:100378000104E9D191F0000F04BF01460020B1FA51
:1003880081F308BF2033A3F10B03B3F120020CDA89
:100398000C3208DD02F1140CC2F10C0201FA0CF067
:1003A80021FA02F10CE002F11402D8BFC2F1200CCC
:1003B80001FA02F120FA0CFCDCBF41EA0C01904082
:1003C800E41AA2BF01EB0451294330BD6FEA0404CB
:1003D8001F3C1CDA0C340EDC04F11404C4F12002B6
:1003E80020FA04F001FA02F340EA030021FA04F3C8
:1003F80045EA030130BDC4F10C04C4F1200220FA1F
:1004080002F001FA04F340EA0300294630BD21FA5C
:1004180004F0294630BD94F0000F83F4801306BF22
:1004280081F480110134013D4EE77FEA645C18BF16
:100438007FEA655C29D094EA050F08BF90EA020FAD
:1004480005D054EA000C04BF1946104630BD91EAA5
:10045800030F1EBF0021002030BD5FEA545C05D1A8
:100468004000494128BF41F0004130BD14F58004E7
:100478003CBF01F5801130BD01F0004545F0FE415B
:1004880041F470014FF0000030BD7FEA645C1ABF90
:10049800194610467FEA655C1CBF0B46024650EAC7
:1004A800013406BF52EA033591EA030F41F40021F3
:1004B80030BD00BF90F0000F04BF0021704730B579
:1004C8004FF4806404F132044FF000054FF000014E
:1004D80050E700BF90F0000F04BF0021704730B50F
:1004E8004FF4806404F1320410F0004548BF4042E4
:1004F8004FF000013EE700BF42004FEAE2014FEA39
:1005080031014FEA02701FBF12F07F4393F07F4F13
:1005180081F06051704792F0000F14BF93F07F4F45
:10052800704730B54FF4607401F0004521F0004188
:1005380020E700BF50EA010208BF704730B54FF00E
:1005480000050AE050EA010208BF704730B511F013
:10055800004502D5404261EB41014FF4806404F14B
:1005680032045FEA915C3FF4DCAE4FF003025FEACD
:10057800DC0C18BF03325FEADC0C18BF033202EB55
:10058800DC02C2F1200300FA03FC20FA02F001FAAF
:1005980003FE40EA0E0021FA02F11444C1E600BF4E
:1005A80070B54FF0FF0C4CF4E06C1CEA11541DBF01
:1005B8001CEA135594EA0C0F95EA0C0F00F0DEF8CC
:1005C8002C4481EA030621EA4C5123EA4C5350EAB1
:1005D800013518BF52EA033541F4801143F4801302
:1005E80038D0A0FB02CE4FF00005E1FB02E506F093
:1005F8000042E0FB03E54FF00006E1FB03569CF0E8
:10060800000F18BF4EF0010EA4F1FF04B6F5007FED
:1006180064F5407404D25FEA4E0E6D4146EB06065F
:1006280042EAC62141EA55514FEAC52040EA5E50E8
:100638004FEACE2EB4F1FD0C88BFBCF5E06F1ED892
:10064800BEF1004F08BF5FEA500E50F1000041EBC9
:10065800045170BD06F0004646EA010140EA020076
:1006680081EA0301B4EB5C04C2BFD4EB0C0541EA98
:10067800045170BD41F480114FF0000E013C00F3AD
:10068800AB8014F1360FDEBF002001F0004170BDD1
:10069800C4F10004203C35DA0C341BDC04F11404EA
:1006A800C4F1200500FA05F320FA04F001FA05F276
:1006B80040EA020001F0004221F0004110EBD37043
:1006C80021FA04F642EB06015EEA430E08BF20EA6F
:1006D800D37070BDC4F10C04C4F1200500FA04F312
:1006E80020FA05F001FA04F240EA020001F00041A4
:1006F80010EBD37041F100015EEA430E08BF20EA17
:10070800D37070BDC4F1200500FA05F24EEA020E5E
:1007180020FA04F301FA05F243EA020321FA04F08D
:1007280001F0004121FA04F220EA020000EBD37044
:100738005EEA430E08BF20EAD37070BD94F0000F44
:100748000FD101F00046400041EB010111F4801F78
:1007580008BF013CF7D041EA060195F0000F18BF29
:10076800704703F00046520043EB030313F4801F65
:1007780008BF013DF7D043EA0603704794EA0C0F1F
:100788000CEA135518BF95EA0C0F0CD050EA410635
:1007980018BF52EA4306D1D181EA030101F00041B2
:1007A8004FF0000070BD50EA410606BF10461946DA
:1007B80052EA430619D094EA0C0F02D150EA0136E6
:1007C80013D195EA0C0F05D152EA03361CBF104627
:1007D80019460AD181EA030101F0004141F0FE41C6
:1007E80041F470014FF0000070BD41F0FE4141F44A
:1007F800780170BD70B54FF0FF0C4CF4E06C1CEA4A
:1008080011541DBF1CEA135594EA0C0F95EA0C0FFE
:1008180000F0A7F8A4EB050481EA030E52EA0335B9
:100828004FEA013100F088804FEA03334FF08055DA
:1008380045EA131343EA12634FEA022245EA111507
:1008480045EA10654FEA00260EF000419D4208BFB8
:10085800964244F1FD0404F5407402D25B084FEA65
:100868003202B61A65EB03055B084FEA32024FF411
:1008780080104FF4002CB6EB020E75EB030E22BF6E
:10088800B61A754640EA0C005B084FEA3202B6EB2E
:10089800020E75EB030E22BFB61A754640EA5C00DD
:1008A8005B084FEA3202B6EB020E75EB030E22BF6D
:1008B800B61A754640EA9C005B084FEA3202B6EB6E
:1008C800020E75EB030E22BFB61A754640EADC002D
:1008D80055EA060E18D04FEA051545EA16754FEA8F
:1008E80006164FEAC30343EA52734FEAC2025FEAAD
:1008F8001C1CC0D111F4801F0BD141EA00014FF03C
:1009080000004FF0004CB6E711F4801F04BF01430C
:100918000020B4F1FD0C88BFBCF5E06F3FF6AFAE28
:10092800B5EB030C04BFB6EB020C5FEA500C50F1B8
:10093800000041EB045170BD0EF0004E4EEA11313B
:1009480014EB5C04C2BFD4EB0C0541EA045170BD42
:1009580041F480114FF0000E013C90E645EA060E86
:100968008DE60CEA135594EA0C0F08BF95EA0C0FB4
:100978003FF43BAF94EA0C0F0AD150EA01347FF4FC
:1009880034AF95EA0C0F7FF425AF104619462CE7D3
:1009980095EA0C0F06D152EA03353FF4FDAE104636
:1009A800194622E750EA410618BF52EA43067FF487
:1009B800C5AE50EA41047FF40DAF52EA43057FF417
:1009C800EBAE12E74FF0FF3C06E000BF4FF0010C22
:1009D80002E000BF4FF0010C4DF804CD4FEA410C86
:1009E8007FEA6C5C4FEA430C18BF7FEA6C5C1BD053
:1009F80001B050EA410C0CBF52EA430C91EA030FD4
:100A080002BF90EA020F0020704710F1000F91EA30
:100A1800030F58BF994208BF90422CBFD8176FEAFE
:100A2800E37040F0010070474FEA410C7FEA6C5CCC
:100A380002D150EA013C07D14FEA430C7FEA6C5CD3
:100A4800D6D152EA033CD3D05DF8040B704700BFFF
:100A58008446104662468C461946634600E000BF4D
:100A680001B5FFF7B7FF002848BF10F1000F01BD1F
:100A78004DF808EDFFF7F4FF0CBF012000205DF8EA
:100A880008FB00BF4DF808EDFFF7EAFF34BF01206F
:100A980000205DF808FB00BF4DF808EDFFF7E0FF08
:100AA80094BF012000205DF808FB00BF4DF808ED59
:100AB800FFF7CEFF94BF012000205DF808FB00BFC0
:100AC8004DF808EDFFF7C4FF34BF012000205DF8A2
:100AD80008FB00BF4FEA410C7FEA6C5C02D150EA88
:100AE800013C0AD14FEA430C7FEA6C5C02D152EA1E
:100AF800033C02D14FF0000070474FF001007047EF
:100B08004FEA410212F5001215D211D56FF478732D
:100B1800B3EB625212D94FEAC12343F0004343EAD0
:100B2800505311F0004F23FA02F018BF40427047AB
:100B38004FF00000704750EA013005D111F0004035
:100B480008BF6FF0004070474FF00000704700BFCB
:100B580053B94AB9002908BF00281CBF4FF0FF311C
:100B68004FF0FF3000F082B9ADF1080C6DE904CE0A
:100B780000F006F8DDF804E0DDE9022304B0704770
:100B88002DE9F04F8C460C460546099E002B4FD1A7
:100B98008A4217466BD9B2FA82FEBEF1000F0BD01B
:100BA800CEF1200520FA05F501FA0EF345EA030C0B
:100BB80002FA0EF700FA0EF5390CBCFBF1F0BAB2E6
:100BC80001FB10C300FB02F84FEA154C4CEA034442
:100BD800A04509D9E41900F1FF3380F02881A04528
:100BE80040F2258102383C44C8EB0404B4FBF1F31D
:100BF80001FB134C03FB02F2ACB244EA0C418A42FB
:100C080009D9C91903F1FF3480F00F818A4240F2F3
:100C18000C81023B39448A1A43EA00400021002E25
:100C280063D022FA0EF2002386E80C00BDE8F08FAC
:100C38008B4207D9002E56D0002186E811000846BD
:100C4800BDE8F08FB3FA83F1002940F09380A34206
:100C580002D3824200F2FE80851A64EB03039C46AD
:100C68000120002E41D086E82010BDE8F08F12B98F
:100C78000127B7FBF2F7B7FA87FEBEF1000F36D1AE
:100C8800E41B4FEA17481FFA87F90121B4FBF8F370
:100C980008FB134409FB03F24FEA154C4CEA0444E1
:100CA800A24207D9E41903F1FF3002D2A24200F2AE
:100CB800D3800346A41AB4FBF8F008FB104809FBDC
:100CC80000F9ACB244EA0842914507D9D21900F1BB
:100CD800FF3402D2914500F2BA802046C9EB0202E5
:100CE80040EA03409BE731463046BDE8F08F07FAFB
:100CF8000EF7CEF1200C24FA0CF34FEA1748B3FB99
:100D0800F8FA1FFA87F908FB1A3520FA0CFC04FADE
:100D18000EF40AFB09FB4CEA040C4FEA1C4242EAB7
:100D280005439B4500FA0EF50AD9DB190AF1FF3293
:100D380080F08B809B4540F28880AAF1020A3B44F0
:100D4800CBEB0303B3FBF8F008FB103300FB09F40B
:100D58001FFA8CFC4CEA03439C4207D9DB1900F1CB
:100D6800FF326ED29C426CD902383B441C1B40EACD
:100D78000A418BE7C1F1200E8B4022FA0EFC4CEAA7
:100D8800030C24FA0EF74FEA1C49B7FBF9FA1FFACD
:100D98008CF309FB1A7720FA0EF88C400AFB03F54E
:100DA80048EA04044FEA144848EA0747BD4202FAF1
:100DB80001F200FA01FB09D917EB0C070AF1FF3021
:100DC80041D2BD423FD9AAF1020A67447F1BB7FB53
:100DD800F9F509FB157705FB03F3A4B244EA0747C5
:100DE800BB4208D917EB0C0705F1FF3027D2BB42ED
:100DF80025D9023D674445EA0A40A0FB0289FF1A4B
:100E08004F4545464C4614D329D066B3BBEB050382
:100E180067EB040707FA0EFECB40CF404EEA030308
:100E280086E888000021BDE8F08F2346F3E61846DF
:100E3800DAE6B8EB020569EB0C040138E5E705468C
:100E4800D9E7104692E78246C0E7924678E702382B
:100E58003A4443E7084604E7023B3C442AE7C345D3
:100E6800E7D33C46D1E73146BDE8F08F704700BF75
:100E7800002103E00B4B5B58435004310A480B4BED
:100E880042189A42F6D30A4A02E0002342F8043B89
:100E9800084B9A42F9D300F011F802F077FE02F0FD
:100EA800EFFB70476C780008000000203C0600202B
:100EB8003C060020C40F0020FEE700000F4B1A6814
:100EC80042F001021A6059680D4A0A405A601A68CD
:100ED80022F0847222F480321A601A6822F4802286
:100EE8001A605A6822F4FE025A604FF41F029A6090
:100EF800044B4FF000629A60704700BF0010024038
:100F08000000FFF800ED00E010B5044601F0E8F835
:100F18004FF47A73B0FBF3F000F088F80022214612
:100F28004FF0FF3000F042F8002010BD074A08B526
:100F38001368032043F01003136000F025F8002025
:100F4800FFF7E2FF02F034FC002008BD0020024059
:100F5800024A136801331360704700BF5806002027
:100F6800014B1868704700BF5806002013B5019060
:100F7800FFF7F6FF0446FFF7F3FF019B001B9842BB
:100F8800F9D302B010BD0000074A0002D36800F48C
:100F9800E06023F4E0631B041B0C43F0BF6343F4DD
:100FA80000330343D360704700ED00E0174B30B5C2
:100FB800DB68C3F30223C3F107041D1D042C28BFFB
:100FC8000424062D4FF0010505FA04F404F1FF345A
:100FD8008CBF033B00230C409C4005FA03F3013B04
:100FE8001A40002842EA04024FEA0212AFBF00F199
:100FF8006040074B00F00F00D2B2A5BFD2B200F597
:1010080061401A5480F8002330BD00BF00ED00E0B5
:1010180014ED00E04209012300F01F0003FA00F07C
:10102800014B43F82200704700E100E00138B0F1BD
:10103800807F0AD2064B074AF021586082F82310B5
:101048000020072298601A6070470120704700BF8F
:1010580010E000E000ED00E0044B04281A680CBF23
:1010680042F0040222F004021A60704710E000E027
:10107800704708B5FFF7FCFF08BD00002DE9F74FE2
:10108800002426466A4BDFF8B0E1DFF8B0C1012240
:101098000D68B24032EA050540F0C2804D68122D55
:1010A8002BD00ED8022D25D004D84DB3012D30D128
:1010B800CC682EE0032D1BD0112D2AD1CC68043426
:1010C80027E065451CD006D8DFF87481454517D060
:1010D80008F5803809E0DFF86C81454510D008F53F
:1010E800803845450CD0A8F58018454511D107E052
:1010F80000240EE0CC6808340BE0CC680C3408E01F
:101108008C682CB1012C0CBF02614261082400E0FC
:101118000424FF2A97BF8346A6F10805D0F800905B
:10112800B50084BFD0F80490AD004FF00F0808FA5E
:1011380005FA29EA0A0904FA05F588BF00F1040B43
:1011480049EA0505CBF80050D1F8049019F0805F02
:1011580066D0384D374FAD6906F0030A45F00105F2
:10116800BD61BD694FEA8A0A05F001050195019D37
:1011780026F0030505F1804505F58035D5F808B05A
:10118800A7F5843708FA0AF8B8422BEA080816D0F7
:1011980007F58067B84215D007F58067B84214D0C4
:1011A80007F58067B84213D007F58067B84212D0B8
:1011B80070450CBF4FF0050B4FF0060B0DE04FF0DC
:1011C800000B0AE04FF0010B07E04FF0020B04E0C0
:1011D8004FF0030B01E04FF0040B0BFA0AFA4AEA4E
:1011E800080AC5F808A01D6819F4803F14BF154304
:1011F80095431D605D6819F4003F14BF154395437E
:101208005D609D6819F4801F14BF154395439D6068
:10121800DD6819F4001F14BF2A4325EA0202DA60C8
:101228000136102E7FF433AF03B0BDE8F08F00BF56
:101238000004014000100240001C01400000211081
:10124800000011100000311002B909040161704753
:10125800C3685940C16070472DE9F041044686B023
:1012680000285FD090F8E93303F0FF021BB980F83B
:10127800E82302F04FFB25466E46032355F8100B72
:1012880084F8E93301F0E2F90FCD0FC62B68271D6A
:10129800336097E80E00206801F0C8F90021206843
:1012A80001F0DEF9002123462246084604F1100524
:1012B800012682F82810918601310F2982F82960C9
:1012C80082F82B009063D063106402F12002F0D101
:1012D8000022114683F808229A8601320F2A83F8E1
:1012E800091283F80B12C3F81812C3F81C12C3F8BA
:1012F80020124FF0000803F12003EBD16E460FCD0A
:101308000FC62B68336097E80E00206801F0AAF931
:10131800012384F82480206884F8E93301F05BFC19
:10132800404600E0012006B0BDE8F08190F8E833BF
:1013380010B5012B04460ED0012180F8E81302F005
:10134800CCFB206801F045FC206801F076F900200C
:1013580084F8E80310BD022010BD90F8E82310B50A
:10136800012A04460BD0012280F8E82384F82410CF
:10137800006801F028FC002084F8E80310BD022072
:1013880010BD38B5044648B2002801F07F05B5BF46
:1013980004EB451104EB4111283101F50271C00F2E
:1013A8000D704870CB7094F8E8330A61012B09D0AE
:1013B800012384F8E833206801F068F9002084F8F4
:1013C800E80338BD022038BD4BB2002B01F07F0284
:1013D800B5BF00EB421100EB4111283101F5027154
:1013E800DB0F10B50A704B7090F8E8330446012BF8
:1013F80009D0012380F8E833006801F0B9FA002029
:1014080084F8E80310BD022010BD70B5044601F051
:101418007F0670012518C5F820320023C5F81C2264
:10142800C5F8243285F8093285F8086294F8E8335B
:10143800012B0CD0012300F50270211884F8E83341
:10144800206801F0E1FB002084F8E80370BD022069
:1014580070BD70B5044601F07F06700125182B6435
:1014680000236B640123EA6385F8293085F8286036
:1014780094F8E8239A420AD02830211884F8E833EF
:10148800206801F0C1FB002084F8E80370BD022049
:1014980070BD2DE9F3410446006801F09EFB00048D
:1014A80016D4206801F099FB410540F1DB812268E0
:1014B8002046B2F8443023F480631B041B0CA2F8C6
:1014C800443002F05EFA00212046FFF746FFC9E1EA
:1014D8000023ADF8043004F57B77ADF806302068BA
:1014E800B0F844309BB2ADF804301B04D9D5BDF830
:1014F800045015F00F0540F0B580BDF804100388BE
:1015080001F0100189B259BB23F4E14323F07003C1
:101518001B041B0C0380B0F8503094F828209BB2B1
:1015280003EBC20300EB4300D0F80434E26BC3F3CF
:10153800090363641344E363204602F017FA94F83E
:101548002430002BCBD0226C002AC8D194F8243048
:10155800216843F08003A1F84C3084F82420BEE7CA
:101568009BB2ADF80630BDF806301A051ED5B0F8A6
:10157800503094F808229BB203EBC20300EB4303FC
:10158800D3F80C34B4F80C22C3F30903C4F824329A
:10159800394601F009FC22682046138823F07003BD
:1015A8001B051B0D138002F0D3F998E7BDF8063030
:1015B8001B0494D5038823F070031B051B0D0380BF
:1015C800B0F8503094F808229BB203EBC20300EB4A
:1015D8004303D3F80C34C3F30903C4F8243263B1CA
:1015E800B4F80C22D4F81C1201F0DEFBD4F81C224B
:1015F800D4F824321344C4F81C320021204602F0E7
:10160800ADF92268D4F81852B2F850103E2D89B2BC
:1016180001F1060102F580600BD9C5F34F13EE0600
:1016280004BF03F1FF339BB26FEAC3636FEA53430E
:1016380006E0C5F34F03ED0744BF01339BB29B029D
:101648009BB240F81130138823F4804323F07003D1
:101658001B041B0C83F4405343F4004343F0800302
:1016680013803CE730F825309BB2ADF80630BDF862
:101678000630190477D530F825304FEA451823F09D
:1016880070031B051B0D20F8253004EB080191F8A9
:101698001232ABB9B0F8503091F808229BB203EB84
:1016A800C20300EB4303D3F80C64C6F30906DEB3A8
:1016B800B1F80C223346D1F81C1201F075FB33E067
:1016C80091F8083230F82320DB0012F4804FB0F88C
:1016D800502092B2134400EB430308D0D3F80464BB
:1016E800C6F309067EB13346B1F80E2207E0D3F8F7
:1016F8000C64C6F3090636B13346B1F81022D1F8A6
:101708001C1201F051FB04EB080393F8081222683D
:1017180032F8213023F0F0031B051B0D43F400437E
:1017280043F0C00322F8213004EB0801D1F8243239
:10173800D1F81C223344C1F82432D1F82032324483
:10174800C1F81C221BB1D1F81802864206D2A04467
:1017580098F80812204602F001F904E091F80812FE
:101768002046FFF752FEBDF806301A067FF5B7AEE1
:1017780020686E0130F82530A11923F4E14323F0E5
:1017880070031B041B0C20F8253091F83230023509
:10179800B3B9B0F8503091F828209BB203EBC203DC
:1017A80000EB4303D3F8043404EB4515C3F30903F2
:1017B8006B60002B38D08A8DC96B01F014FA33E0C6
:1017C80091F8283030F82320DB0012F0400FB0F8F1
:1017D800502092B2134400EB430309D0D3F80434E9
:1017E80004EB4515C3F309036B606BB1CA8D08E0C0
:1017F800D3F80C3404EB4515C3F309036B601BB134
:101808000A8EC96B01F0EFF9A31993F82810226822
:1018180032F8213023F0F0031B051B0D43F440433D
:1018280043F0800322F821302068A119B0F8502035
:1018380091F8283092B202EBC30300EB4303D3F8CC
:101848000424CB6BC2F309024A641A440B6CCA63C2
:10185800204691F8281013B902F088F83FE6FFF700
:10186800F8FD3CE6206801F0B8F9470408D522687D
:10187800B2F8443023F480431B041B0CA2F8443014
:10188800206801F0AAF9860408D52268B2F8443025
:1018980023F400531B041B0CA2F84430206801F009
:1018A8009CF9C50418D522682046B2F8403023F0C8
:1018B80004031B041B0CA2F840304FF43D43A2F86C
:1018C800403002F07BF82268B2F8443023F48053A9
:1018D8001B041B0CA2F84430206801F07EF90005B7
:1018E8001DD52068B0F8443023F400631B041B0C9A
:1018F800A0F84430B0F840309BB243F00803A0F899
:101908004030B0F840309BB243F00403A0F84030B8
:1019180001F063F9C10402D4204602F03FF82068C0
:1019280001F05BF982050BD522682046B2F84430F5
:1019380023F400731B041B0CA2F8443002F01DF8BA
:10194800206801F04AF9C30508D52268B2F8443086
:1019580023F480731B041B0CA2F8443002B0BDE8CA
:10196800F08138B54BB2002B01F07F05B5BF00EB15
:10197800451100EB4111283101F502710122DB0FFD
:10198800EDB28A700D704B7090F8E83304469342BC
:101998000ED080F8E823006801F0A2F825B904F514
:1019A8007B71206801F01DF9002084F8E80338BD38
:1019B800022038BD38B54BB2002B01F07F02B5BF0D
:1019C80000EB421100EB4111283101F50271DB0FE8
:1019D80000248C700A704B7090F8E8330546012B90
:1019E80009D0012380F8E833006801F0AAF885F8E7
:1019F800E843204638BD022038BD11F0800F1BBFD8
:101A080001F07F0100EB411000EB4110283008BFC6
:101A180000F5027012B98272838004E00122C3804B
:101A28001B0C8272038100207047000003682DE9B7
:101A3800F743DC07054603D42B68980773D4F2E014
:101A4800B94C636803F00C03042B07D0636803F0F8
:101A58000C03082B16D16368D90313D54FF4003350
:101A680093FAA3F2226893FAA3F3B3FA83F303F089
:101A78001F0322FA03F3DA07DED56B68002BDBD1EC
:101A880001202DE26B68B3F5803F15D06BB9236850
:101A98004FF4003623F480332360236823F4802333
:101AA8002360FFF75DFA07462FE0B3F5A02F236800
:101AB80006D143F480232360236843F4803305E090
:101AC80023F480332360236823F480232360FFF703
:101AD80047FA07464FF4003696FAA6F3226896FAB4
:101AE800A6F3B3FA83F303F01F0322FA03F3DB0729
:101AF800A2D4FFF735FAC01B6428EDD90320EFE123
:101B0800FFF72EFAC01B6428F8D896FAA6F32268C5
:101B180096FAA6F3B3FA83F303F01F0322FA03F34A
:101B2800D807EDD488E7804C636813F00C0F07D012
:101B3800636803F00C03082B21D16368D9031ED412
:101B4800022393FAA3F2226893FAA3F3B3FA83F376
:101B580003F01F0322FA03F3DA0702D52B69012BDE
:101B68008ED12368F82292FAA2F2B2FA82F2696957
:101B780023F0F80301FA02F21343236053E02A69C1
:101B880001237AB393FAA3F2B2FA82F2920002F135
:101B9800844202F584021360FFF7E2F90746022641
:101BA80096FAA6F36048226896FAA6F3B3FA83F386
:101BB80003F01F0322FA03F3DB0705D4FFF7D0F97C
:101BC800C01B0228ECD999E70368F82292FAA2F21E
:101BD800B2FA82F2696923F0F80301FA02F21343B8
:101BE800036020E093FAA3F3B3FA83F39B0003F1B5
:101BF800844303F584031A60FFF7B2F90746022607
:101C080096FAA6F3226896FAA6F3B3FA83F303F0DA
:101C18001F0322FA03F3D90705D5FFF7A1F9C01B63
:101C28000228EDD96AE72B681A0746D5AA693E4CFF
:101C380001233E4912B393FAA3F2B2FA82F241F8B1
:101C48002230FFF78DF90746022696FAA6F396FA90
:101C5800A6F3626A96FAA6F3B3FA83F303F01F03B6
:101C680022FA03F3DB0705D4FFF77AF9C01B022831
:101C7800EBD943E70120FFF779F91EE093FAA3F3C4
:101C8800B3FA83F341F82320FFF76AF907460226DF
:101C980096FAA6F396FAA6F3626A96FAA6F3B3FA48
:101CA80083F303F01F0322FA03F3D80705D5FFF7E0
:101CB80057F9C01B0228EBD920E72B68590704D431
:101CC800EA69002A40F08180D8E0174C184EE36991
:101CD80043F08053E361E36903F080530193019B70
:101CE800336843F480733360FFF73AF90746336883
:101CF800DA0505D4FFF734F9C01B6428F7D9FDE6E7
:101D0800EB68012B1CD0ABB9236A022623F0010330
:101D18002362236A374623F004032362FFF720F97E
:101D280041F28839804648E000100240800442426F
:101D380000700040052B236A06D143F00403236298
:101D4800236A43F0010305E023F001032362236AB9
:101D580023F004032362FFF703F902268146B04605
:101D680041F2883796FAA6F396FAA6F30BB1226ADF
:101D780000E0626A98FAA8F3B3FA83F303F01F034A
:101D880022FA03F3DB079BD4FFF7EAF8C9EB00005C
:101D9800B842E7D9B2E6626A97FAA7F3B3FA83F3CF
:101DA80003F01F0322FA03F3D80789D5FFF7D8F801
:101DB800C8EB000048453FF6A1AE96FAA6F396FA9E
:101DC800A6F3002BE7D0226AE6E7474C636803F0E6
:101DD8000C03082B3FF454AE022A4FF080735CD1F9
:101DE80093FAA3F3B3FA83F39B0003F1844303F557
:101DF800840300221A60FFF7B3F880464FF000769C
:101E080096FAA6F3384F226896FAA6F3B3FA83F344
:101E180003F01F0322FA03F3D90731D42E6AB6F56B
:101E2800803F05D1796821F40030A96801437960C1
:101E380063686A6A23F474133243134363604FF090
:101E4800807393FAA3F3B3FA83F39B0003F18443FB
:101E580003F5840301221A60FFF782F806464FF063
:101E6800007595FAA5F3226895FAA5F3B3FA83F3FA
:101E780003F01F0322FA03F3DA0708D500202FE046
:101E8800FFF76EF8C8EB00000228B9D936E6FFF76D
:101E980067F8801B0228E4D930E693FAA3F3B3FA73
:101EA80083F39B0003F1844303F5840300221A6043
:101EB800FFF756F806464FF0007595FAA5F3226825
:101EC80095FAA5F3B3FA83F303F01F0322FA03F399
:101ED800DB07D3D5FFF744F8801B0228EDD90DE6C0
:101EE80003B0BDE8F08300BF001002401F4B70B57F
:101EF80003F110052E4686B002AC224618685968D0
:101F0800083303C2AB421446F7D13388184CADF8F6
:101F18000430606800F00C03082B24D14FF47013D0
:101F280093FAA3F3B3FA83F300F4701222FA03F3DB
:101F380006AA134413F8101CC30311D562684FF4A2
:101F4800003393FAA3F3B3FA83F002F40033C340E7
:101F580006AA134413F8140C064BB3FBF0F000E088
:101F68000548484300E0034806B070BDC87500083E
:101F78000010024000127A0000093D00544A2DE981
:101F8800F0411368064603F007038B420D460AD357
:101F980031688C0714D54F48436823F0F002B368C2
:101FA800134343600CE0136823F007030B431360EB
:101FB800136803F007039942EAD00120BDE8F081D5
:101FC800C80706D4424A136803F007039D424AD360
:101FD80053E072683F4C012A02D14FF4003304E009
:101FE800022A0CBF4FF00073022393FAA3F1216871
:101FF80093FAA3F3B3FA83F303F01F0321FA03F36D
:10200800D907DAD5636841F2883823F003031A4305
:102018006260FEF7A5FF73680746012B0CD1636861
:1020280003F00C03042BCDD0FEF79AFFC01B4045EC
:10203800F5D90320BDE8F081022B0FD1636803F0C6
:102048000C03082BBED0FEF78BFFC01B4045F5D90B
:10205800EFE7FEF785FFC01B4045EAD8636813F039
:102068000C0FF6D1AEE7136823F007032B43136078
:10207800136803F007039D429FD13168154C11F096
:10208800040F05D0636823F4E062F36813436360C8
:102098000B0706D56368326923F4605343EAC20329
:1020A8006360FFF723FF6368F02292FAA2F2B2FAA4
:1020B80082F203F0F003D340074AD35CD840074BC1
:1020C80018600020FEF720FF0020BDE8F08100BF67
:1020D8000020024000100240DA75000800000020CD
:1020E800014B1868704700BF00000020084B4FF4F0
:1020F800E0625B6892FAA2F2B2FA82F203F4E06359
:10210800D340044AD35C044A1068D840704700BFE3
:1021180000100240EA75000800000020084B4FF448
:1021280060525B6892FAA2F2B2FA82F203F4605348
:10213800D340044AD35C044A1068D840704700BFB3
:1021480000100240EA7500080000002003682DE92D
:10215800F743DC07054664D53E4C3F4EE36943F040
:102168008053E361E36903F080530193019B336873
:1021780043F480733360FEF7F3FE07463368D805EF
:1021880006D4FEF7EDFEC01B6428F7D903205DE0F6
:10219800236A304813F4407306D1236A23F440724B
:1021A8006B68134323623CE06A6802F4407293420E
:1021B800F3D0016A4FF4803321F4407793FAA3F205
:1021C800B2FA82F2254E4FF0010E46F822E093FA59
:1021D800A3F3B3FA83F30022C90746F82320076262
:1021E800DBD5FEF7BDFE02268046374641F2883928
:1021F80096FAA6F396FAA6F30BB1226A00E0626A91
:1022080097FAA7F3B3FA83F303F01F0322FA03F351
:10221800DA07C2D4FEF7A4FEC8EB00004845E7D9A8
:10222800B4E72868830706D50A494B6823F4404277
:10223800AB6813434B6010F0100007D0054900202D
:102248004B6823F480026B6913434B6003B0BDE80D
:10225800F08300BF001002400070004000044242BA
:102268002DE9F047066881683369814623F44052B6
:10227800C3681924134333610369F2681943436936
:10228800194322F4B05323F00C030B43F360736932
:1022980023F440728369134373613D4B9E4231D1ED
:1022A800FFF73CFF6043D9F804704FF06408BF00A3
:1022B800B0FBF7F7FFF732FF6043D9F80450B7FBDC
:1022C800F8F7AD00B0FBF5F5FFF728FF6043D9F844
:1022D80004303F019B00B0FBF3F0B0FBF8F008FBC3
:1022E8001055FFF71BFF2D013235B5FBF8F560439C
:1022F800D9F8041005F0F0058900B0FBF1FAFFF7F2
:102308000DFF30E0FFF7F2FE6043D9F804704FF09C
:102318006408BF00B0FBF7F7FFF7E8FE6043D9F8A1
:102328000450B7FBF8F7AD00B0FBF5F5FFF7DEFE9C
:102338006043D9F804303F019B00B0FBF3F0B0FBD9
:10234800F8F008FB1055FFF7D1FE2D013235B5FB2B
:10235800F8F56043D9F8041005F0F0058900B0FBE2
:10236800F1FAFFF7C3FE4443D9F804008000B4FB38
:10237800F0F0B0FBF8F008FB10A212013232B2FB09
:10238800F8F303F00F032B441F44B760BDE8F08750
:102398000038014010B5044630B390F8393003F0E6
:1023A800FF021BB980F8382001F048FA226802239E
:1023B80084F83930D368204623F40053D360FFF7FC
:1023C8004FFF236800201A6922F490421A615A6963
:1023D80022F02A025A61DA6842F40052DA600123D4
:1023E800E06384F8393010BD012010BD90F8393011
:1023F800DBB2012B01D0222B20D1E9B1E2B190F858
:102408003830012B1AD0012380F838300023C363F9
:102418008284C28490F8392080F83830222A0CBF90
:102428003222122280F8392002680162D368002023
:1024380043F08003D3607047012070470220704743
:1024480090F83930DBB2012B01D0122B28D129B3F7
:1024580022B390F83830012B22D0012380F838308D
:102468000023C3638285C28590F8392080F838300C
:10247800122A03680CBF3222222280F83920DA6837
:10248800816242F48072DA605A69002042F00102E7
:102498005A61DA6842F02002DA607047012070471A
:1024A8000220704770477047026813B511680446E8
:1024B800C907D36805D5DB0542BFC36B43F00103E9
:1024C800C36311685369880703F0010304D51BB17E
:1024D800E16B41F00401E1631168490704D51BB1C0
:1024E800E16B41F00201E1631168080704D51BB1F3
:1024F800E36B43F00803E3631168D368890642D5A8
:10250800980640D594F8393003F0EF03222B3AD1DE
:10251800A3682169B3F5805FA36A0BD1526821B91A
:10252800C2F3080223F8022B02E0D2B223F8012BEF
:10253800A3620AE019B9591CA162526804E0526802
:10254800591CA16202F07F021A70E38D013B9BB215
:10255800E385C3B923682046DA6822F02002DA60EE
:1025680094F83920322A17BFDA68122322F48072CD
:10257800DA601FBF5A6922F001025A61012384F808
:10258800393001F013F923681968DA68090628D583
:10259800100626D594F8392002F0DF02122A20D13D
:1025A800A268B2F5805F226A0AD11188C1F30801D6
:1025B8005960216909B9023200E00132226203E060
:1025C800511C216212785A60E28C013A92B2E2847C
:1025D8003AB9DA6822F08002DA60DA6842F040023A
:1025E800DA601968DA68490610D552060ED5DA6835
:1025F800204622F04002DA6094F83930322B0CBFC2
:102608002223012384F83930FFF74CFFE36B5BB1D9
:10261800236820461A6801925B680193019B012395
:1026280084F83930FFF73FFF02B010BD84B001A82D
:1026380080E80E0004B000207047B0F840309BB22C
:1026480043F43D43A0F8403000207047B0F84030D4
:1026580023F474535B045B0CA0F8403000207047EF
:102668000020704784B010B503AC84E80E00BDE8C4
:1026780010400123A0F840300023A0F8403004B0F7
:10268800A0F84430A0F8503018467047CB7830B5E1
:102698000A78032B2BD8DFE803F0021F0C1530F85B
:1026A80022309BB223F4EC4323F0700343F400730D
:1026B8001BE030F8223023F4EC4323F070031B04B2
:1026C8001B0C12E030F822309BB223F4EC4323F0C9
:1026D800700343F4C06308E030F822309BB223F45F
:1026E800EC4323F0700343F4806320F822300C7825
:1026F80030F8243044F4004223F0F0031B051B0D8E
:1027080042F08002134320F824308B7A0D78002B96
:1027180074D14A788B883AB3B0F850205B0892B2EB
:1027280002EBC5045B0000EB4404C4F800340A78EB
:1027380030F822305B060BD530F8223023F0F00356
:102748001B051B0D43F4004343F0C00320F822305F
:102758000A7830F8223023F4E04323F040031B04C6
:102768001B0C83F02003FBE0B0F850405B08A4B2D8
:1027780004EBC50404345B0000F5806242F81430B1
:10278800B0F850400B780D69A4B204EBC3043E2D99
:1027980004F106040BD9C5F34F13ED0604BF03F18A
:1027A800FF339BB26FEAC3636FEA534306E0C5F396
:1027B8004F03ED0744BF01339BB29B029BB242F823
:1027C80014300A7830F822305C040BD530F8223007
:1027D80023F0F0031B051B0D43F4404343F0800333
:1027E80020F822300A7830F8223023F4804323F08E
:1027F80070031B041B0C83F44053B1E030F8253000
:1028080000F5806423F4F8731B051B0D43F40143A2
:1028180043F0800320F82530B0F850300A789BB296
:1028280003EBC203CA885208520044F81320B0F8D8
:1028380050300A789BB203EBC2030A89043352086A
:10284800520044F813204B780A78002B46D130F810
:1028580022305B040BD530F8223023F0F0031B053F
:102868001B0D43F4404343F0800320F822300A78DC
:1028780030F822305D060BD530F8223023F0F00313
:102888001B051B0D43F4004343F0C00320F822301E
:102898000A7830F8223023F0F0031B051B0D43F4AF
:1028A800004343F0C00320F822300A7830F8223081
:1028B80023F4804323F070031B041B0C83F4405360
:1028C80043F4004343F0800320F822300A7830F8BC
:1028D800223023F0C0031B051B0D41E030F82230E5
:1028E8005C040BD530F8223023F0F0031B051B0DD8
:1028F80043F4404343F0800320F822300A7830F84C
:1029080022305B060BD530F8223023F0F0031B058C
:102918001B0D43F4004343F0C00320F822300A782B
:1029280030F8223023F0F0031B051B0D43F440431D
:1029380043F0800320F822300A7830F8223023F060
:10294800C0031B051B0D43F4004343F0800320F82C
:1029580022300A7830F8223023F0F0039B049B0CD5
:1029680043F4004343F0800320F82230002030BDB8
:1029780010B58C7A4A780B781CBB82B130F82320CA
:1029880052065BD530F8232022F0F0021205120D12
:1029980042F4004242F0C00220F823204EE030F812
:1029A8002320540440F18D8030F8232022F0F002D7
:1029B8001205120D42F4404242F0800220F8232012
:1029C8007FE0002A42D130F8232052040BD530F89A
:1029D800232022F0F0021205120D42F4404242F088
:1029E800800220F823200A7830F822305C060BD5C4
:1029F80030F8223023F0F0031B051B0D43F400438D
:102A080043F0C00320F822300A7830F8223023F04F
:102A1800F0031B051B0D43F4004343F0C00320F8EB
:102A280022300A7830F8223023F0F0039B049B0C04
:102A380043F4004343F0800320F822300A7830F84A
:102A4800223023F0C0031B051B0D41E030F8232082
:102A580052040BD530F8232022F0F0021205120D93
:102A680042F4404242F0800220F823200A7830F8ED
:102A780022305B060BD530F8223023F0F0031B051B
:102A88001B0D43F4004343F0C00320F822300A78BA
:102A980030F8223023F0F0031B051B0D43F44043AC
:102AA80043F0800320F822300A7830F8223023F0EF
:102AB800C0031B051B0D43F4004343F0800320F8BB
:102AC80022300A7830F8223023F0F0039B049B0C64
:102AD80043F4004343F0800320F82230002010BD67
:102AE8000A787AB903889BB223F4804323F0400321
:102AF80083F4805383F0100343F4004343F08003CE
:102B080003801CE04B7853B130F8223023F4E043C3
:102B180023F040031B041B0C83F0100309E030F87A
:102B2800223023F4804323F070031B041B0C83F42E
:102B3800805343F4004343F0800320F82230002000
:102B480070474B780A78DBB130F822305B060BD53A
:102B580030F8223023F0F0031B051B0D43F400432B
:102B680043F0C00320F822300A7830F8223023F4EA
:102B7800E04323F040031B041B0C83F030031AE0EE
:102B880030F822305B040BD530F8223023F0F00304
:102B98001B051B0D43F4404343F0800320F822300B
:102BA8000A7830F8223023F4804323F070031B04A2
:102BB8001B0C83F4405343F4004343F0800320F894
:102BC80022300020704711B98023A0F84C30002033
:102BD80070470020704700207047B0F8440080B26A
:102BE800704700207047013300F5806010B55B1016
:102BF80000EB42020024A34205D031F8020B22F870
:102C080024000134F7E710BDF8B5044648780E46AD
:102C180001288B690A698F7A57D11D46934283BF71
:102C28009D1A8D611546002398BF8B61ABB27FB9A1
:102C38008A8820464969FFF7D6FFB4F850303278C1
:102C48009BB203EBC20304EB4303C3F8045430E024
:102C58000A78204634F82210D20011F0400FB4F858
:102C6800501089B20A4404EB4202C2F80454716954
:102C780014BF3289F288FFF7B6FF7378327853B9F8
:102C880034F8223023F0F0031B051B0D43F40043F6
:102C980043F0C0030BE0012B0BD134F8223023F0B2
:102CA800F0031B051B0D43F4404343F0800324F855
:102CB8002230327834F8223023F4E04323F0400302
:102CC8001B041B0C83F0300366E093428BBF9B1AF6
:102CD80000228B618A6188BF1346097827B300BB3D
:102CE800B4F850203E2B92B202EBC10101F102016F
:102CF80004F580600BD9C3F34F12DD0604BF02F15F
:102D0800FF3292B26FEAC2626FEA524206E0C3F340
:102D18004F02DF0744BF013292B2920292B240F8EA
:102D28001120727831780ABBB4F850203E2B92B249
:102D380002EBC10101F1060104F580600BD9C3F370
:102D48004F12DD0604BF02F1FF3292B26FEAC2628F
:102D58006FEA524206E0C3F34F02DB0744BF013279
:102D680092B2920292B240F811200AE0012A08D1E8
:102D7800B4F8502092B202EBC10104EB4101C1F852
:102D88000434327834F8223023F4804323F070037B
:102D98001B041B0C83F4405343F4004343F08003AB
:102DA80024F822300020F8BD013300F5806010B50A
:102DB8005B1000EB42020024A34205D052F8240025
:102DC80021F814000134F7E710BD0000292303801F
:102DD8000048704710000020D0F8183200201877FB
:102DE800704710B5D0F81842A369012B07D1D0F865
:102DF8001C326178DB68207898470023A3610020A3
:102E080010BD00000A2303800048704778000020A6
:102E180038B50446D0F81852D0F81C326978DB6807
:102E2800287898470A232A460121204600F048FEC0
:102E3800002038BD38B50C78054614F06004D0F889
:102E480018322BD0202C51D14A78023A092A20D89E
:102E5800DFE802F010081F1F1F1F1F170C058A78D4
:102E6800DA6043E0012203F10C0106E04A88120A05
:102E78001A613BE0012203F11001284600F07FFBB4
:102E880034E001229A6128468A79194600F08CFBC1
:102E98002CE0284600F0C0F9022428E04A780A2AE3
:102EA8001BD00B2A1FD0062A21D14B881B0A222BA4
:102EB80007D1CA88D0F81C320A2A28BF0A22196802
:102EC80009E0212B05D1CA880A49092A28BF092205
:102ED80001E021462246284602E0012203F11401BE
:102EE80000F04DFB03E08A785A6100E00024204698
:102EF80038BD00BF0400002010B50446812100F051
:102F0800ACFD0121204600F0A8FDD4F8183253B1D9
:102F1800D4F81C329B689847D4F8180200F0DCFDFE
:102F28000023C4F81832002010BD70B505460223EE
:102F38000322812100F087FD022303220121284674
:102F480000F081FD202000F0C3FD0646C5F81802F8
:102F580068B1D5F81C32002404775B6898470A23C7
:102F680032460121284600F0ABFD204670BD012005
:102F780070BD19B1C0F81C120020704702207047BC
:102F880008B550B90D4800F02FFE0D4800F02CFE92
:102F98000A2000F041FE022008BDD0F8143213B117
:102FA8000023C0F8143209B1C0F81012012380F8C8
:102FB800FC31027000F006FD002008BDF275000823
:102FC800FA75000808B519B1C0F81412002008BD38
:102FD800054800F009FE054800F006FE0A2000F04A
:102FE8001BFE022008BD00BFF2750008107600081D
:102FF80008B500F021FD002008BD08B5D0F814324E
:103008000BB9022008BD1B6898470028F9D108BDF4
:1030180008B5D0F814325B689847002008BD38B569
:10302800044600F50275284600F0E2F80123C4F8CA
:10303800F43194F80812B4F80E32C4F8F83101F0FB
:103048001F03012B0CD006D3022B0ED12946204694
:1030580000F016FA0EE02946204600F0E9F809E0EB
:103068002946204600F0F4F904E001F080012046EA
:1030780000F0FAFC002038BD38B50446154609BBF7
:10308800D0F8F431032B26D1D0F80C11D0F8102148
:1030980091420AD98B1A9A4228BF1A46C0F80C31B5
:1030A80092B2294600F08FFA15E0D0F814321B6965
:1030B80023B190F8FC21032A00D19847204600F05C
:1030C8008AFA08E0D0F814329B6923B190F8FC2101
:1030D800032A00D19847002038BD70B5134604462E
:1030E8000E4600293CD1D0F8F421022A30D1C56916
:1030F800026A954207D9AA1AC261194692B200F02B
:103108004BFA334611E08369B3FBF2F502FB153540
:103118008DB99A420FD8D0F8F82193420BD22A469B
:1031280000F03AFA2B46C4F8F8511A4619462046D8
:1031380000F0C6FC0CE0D4F81432DB682BB194F82C
:10314800FC21032A01D120469847204600F04EFA78
:1031580094F80032012B0CD1002384F8003208E0E7
:10316800D0F814325B6923B190F8FC21032A00D10E
:103178009847002070BD38B5044600221146402506
:10318800402300F060FC2B46C4F810510022802137
:10319800204600F058FC012384F8FC31D4F818329A
:1031A80025622BB1D4F8143221795B682046984700
:1031B800002038BD01740020704790F8FC3180F879
:1031C800FD31042380F8FC310020704790F8FD3170
:1031D80080F8FC310020704708B590F8FC21032ADC
:1031E80004D1D0F81432DB6903B19847002008BD38
:1031F8000B7803704B784370CA788B7803EB022303
:1032080043804A790B7903EB02238380CA798B794F
:1032180003EB0223C380704710B50446802100F0F9
:1032280023FC2046BDE81040002100F01DBC000032
:1032380073B54B7804460D46092B00F2FF80DFE892
:1032480013F0D100E800FD00E400FD007B000A0057
:10325800FD00C100970049880B0A013B062B00F2CC
:10326800ED80DFE813F007000B001700EB00EB0020
:1032780042004D00D0F810321B6816E0027CD0F8EE
:1032880014320AB99B6A00E0DB6A0DF10600984720
:10329800022340E0C9B2052920D8DFE801F0030B7A
:1032A8000F13171BD0F810325B680DF10601207C54
:1032B800984731E0D0F810329B68F6E7D0F8103222
:1032C800DB68F2E7D0F810321B69EEE7D0F810326D
:1032D8005B69EAE7D0F810329B69E6E7D0F8143268
:1032E8000DF106029B6B984716E0037C002B40F01B
:1032F800A580D0F814320DF106005B6B98470BE0FF
:10330800037C002B40F09A80D0F814320DF10600AF
:103318001B6B984707234370BDF80620002A00F06E
:103328009180EB88002B00F08D809A4228BF1A46C6
:103338000146ADF8062064E08B88002B7ED1CB884F
:10334800002B7BD190F8FC318E78032B06F07F069A
:1033580074D080F8FE61314600F0A4FB204600F0EE
:103368003AF90EB1022300E0012384F8FC3169E048
:103378008978364E0129317060D890F8FC31022BDB
:1033880002D0032B08D059E0002953D00121032390
:10339800416080F8FC310FE031B9022380F8FC313C
:1033A8004160FFF735FE45E04168012942D0C9B2C6
:1033B800FFF72EFE317861602046FFF71EFE0228D7
:1033C80038D13BE0CA88012A38D190F8FC31022B69
:1033D80003D0032B32D1011D13E00146002341F82D
:1033E800083F0EE090F8FC31023B012B26D8012360
:1033F800C360D0F804320BB10323C360022204F186
:103408000C01204600F0BBF81CE04B88012B19D1B9
:1034180008E090F8FC31023B012B0FD84B88012BB8
:1034280010D10023C4F80432D4F8143229469B681A
:1034380020469847204600F0CEF803E0294620466B
:10344800FFF7EAFE002002B070BD00BF5C06002056
:1034580038B590F8FC310446032B0D460CD10B7996
:10346800052B09D8D0F814329B689847EB882BB9FC
:10347800204600F0B0F801E0FFF7CEFE002038BD8E
:1034880070B50A788E8802F06002202A04460D463C
:10349800F3B204D1D0F814329B68984751E04A78C7
:1034A800012A10D026D3032A4BD190F8FC21022AF6
:1034B80027D0032A43D14A8892B95E0610D019460C
:1034C80000F0D2FA0CE090F8FC21022A19D0032A65
:1034D80035D14A88AABB590608D0194600F0CBFA5C
:1034E800D4F8143229469B6820469847204600F0B5
:1034F80072F826E090F8FC21022A02D0032A06D0AE
:103508001DE05A061DD0194600F0AEFA19E003F086
:103518007F0516F0800F00EB0515194614BF14350A
:1035280005F5827500F0AEFA10B101232B6000E0BA
:10353800286002222946204600F021F801E0FFF722
:103548006BFE002070BD30B5C0B105462B1A15F8CA
:10355800014BDBB2002CF9D15B00023313800B70F6
:1035680003234B700138022310F8015F35B15A1C50
:10357800CD54D2B20233DBB28C54F5E730BD1346DA
:1035880010B50222C0F8F42183610A46C361002104
:1035980000F08FFA002010BD08B513460A46002136
:1035A80000F087FA002008BD134610B50322C0F8C2
:1035B800F421C0F808310A46C0F80C31002100F0A7
:1035C8007FFA002010BD08B513460A46002100F016
:1035D80077FA002008BD08B50423C0F8F4310023A9
:1035E8001A46194600F065FA002008BD08B50523FB
:1035F800C0F8F43100231A46194600F061FA002099
:1036080008BD10B5012396B00C934FF480330D9389
:103618000022022414930CA84FF4E0130E92139482
:103628001593FEF703FA00B1FEE70F230193039009
:103638004FF480630590214601A802940493FEF795
:103648009DFC00B1FEE710230B9006A80693FEF739
:103658007DFD044600B1FEE7FEF742FD4FF47A73A4
:10366800B0FBF3F0FDF7E2FC0420FDF7F5FC224681
:1036780021464FF0FF30FDF799FC16B010BD000051
:103688002DE9F04389B0FDF751FCFFF7BAFF414B34
:1036980005219A69404842F040029A619A690125D9
:1036A80002F040020192019A9A693C4C42F01002E1
:1036B8009A619A694FF4E13602F010020292029A76
:1036C8009A6942F004029A619B69002203F004039C
:1036D8000393039BFDF7B8FD0523049304A9022374
:1036E8002D4807930595FDF7C9FC2A4629462A481F
:1036F800FDF7AAFD2A4604212748FDF7A5FD284B1A
:103708000C2284E8480020460023A360E36023617C
:103718006261A361E361FEF73DFE064600B1FEE784
:10372800024629461C48FDF78FFD00F0D7F83246BF
:1037380004211948FDF788FDFDF712FC25460746C8
:10374800184EDFF8649094F839309A0607D480222E
:1037580015491248C6F80090FEF772FE0DE095F87C
:103768003930DB0609D43168AB6A8B4205D90122AE
:103778000A48FEF73BFEAB6A3360FDF7F1FB07F53D
:10378800FA7398428046DED304210348FDF760FDB2
:103798004746D6E70010024000180140BC0600204A
:1037A8000038014084000020FC0600207047FEE736
:1037B800204B07B59A69032042F001029A619B6980
:1037C80003F001030193019BFDF7DEFB0022114684
:1037D8006FF00B00FDF7EAFB002211466FF00A00BC
:1037E800FDF7E4FB002211466FF00900FDF7DEFB50
:1037F800002211466FF00400FDF7D8FB00221146A5
:103808006FF00300FDF7D2FB002211466FF00100B4
:10381800FDF7CCFB002211464FF0FF30FDF7C6FB49
:10382800054A536823F0E06343F00073536003B024
:103838005DF804FB001002400000014010B502686A
:10384800164B86B09A4227D103F558439A6902A9C4
:1038580042F480429A619B69114803F480430193C2
:10386800019B4FF400730293022303930323002464
:103878000593FDF703FC4FF4806302A908480293FF
:1038880003940494FDF7FAFB252022462146FDF710
:103898008DFB2520FDF7BEFB06B010BD00380140AA
:1038A800000801407047FEE7FEE7FEE7FEE77047C5
:1038B8007047704708B5FDF74BFBBDE80840FDF7BA
:1038C800D8BB00000148FDF7E4BD00BFA0090020F7
:1038D8000148FEF7E9BD00BFBC06002010B5094C41
:1038E800002209492046FFF74BFB08492046FFF70D
:1038F80069FB20460649FFF73CFB2046BDE810401F
:10390800FFF776BB7C070020A40000203C000020C5
:103918008800002007B50D4B02689A4212D103F5C2
:10392800DA33DA69142042F40002DA61DB69002232
:1039380003F4000301931146019BFDF737FB1420A4
:10394800FDF768FB03B05DF804FB00BF005C0040B6
:1039580000F57B71D0F81C04FFF761BB00EB411345
:10396800D3F81C22D0F81C04FFF786BB00EB4113E8
:10397800DA6BD0F81C04FFF7B0BBD0F81C04FFF7D3
:103988002BBC10B504460121D0F81C04FFF712FC2B
:10399800D4F81C04BDE81040FFF7EDBB10B5044691
:1039A800D0F81C04FFF709FCA36923B1024A136984
:1039B80043F00603136110BD00ED00E0D0F81C04CD
:1039C800FFF704BC10B50446194A1A4808234FF0FB
:1039D800020CC0F81C4480E80C10C4F82002002334
:1039E800C3608361C3610362FDF736FC08B1FFF76A
:1039F800DEFE002211461823D4F82002FDF7FDFF51
:103A0800582300228021D4F82002FDF7F6FF9823DE
:103A180000228121D4F82002FDF7EFFFD8230022ED
:103A28000121D4F82002FDF7E8FF002010BD00BFF7
:103A3800005C0040A009002008B5D0F82002FDF77E
:103A480075FC002008BD10B51C46D0F820021346AE
:103A58002246FDF796FC002010BD08B5D0F82002DC
:103A6800FDF7B2FC002008BD08B5D0F82002FDF72C
:103A780078FF002008BD08B5D0F82002FDF79AFFAE
:103A8800002008BD0A06D0F8203245BF01F07F01AA
:103A980003EB411303EB411393F82A0058BF93F843
:103AA8000A02704708B5D0F82002FDF756FC00203E
:103AB80008BD08B5D0F82002FDF7CBFC002008BDF2
:103AC80008B5D0F82002FDF7A0FC002008BD0000D2
:103AD8000048704760060020704770470020704714
:103AE800002070470020704712230B800048704761
:103AF800C400002004230B8000487047C000002049
:103B080010B5044C0A4604482146FFF71CFD204620
:103B180010BD00BFC00D00202576000810B5044C6C
:103B28000A4604482146FFF70EFD204610BD00BF97
:103B3800C00D00203876000810B5044C0A46044829
:103B48002146FFF700FD204610BD00BFC00D002034
:103B58005576000810B5044C0A4604482146FFF77C
:103B6800F2FC204610BD00BFC00D002062760008A0
:103B780010B5044C0A4604482146FFF7E4FC2046E9
:103B880010BD00BFC00D0020747600080E4B70B544
:103B98001E460E4C0025E41AA410A54204D056F87F
:103BA800253098470135F8E703F0FCFC084B094C31
:103BB8001E46E41AA4100025A54204D056F8253064
:103BC80098470135F8E770BD647800086478000804
:103BD800647800086878000803460244934202D0DB
:103BE80003F8011BFAE770470FB40A4B13B51C68BA
:103BF80024B1A36913B9204601F0D4FF05AB049A98
:103C0800A1682046019300F01BF802B0BDE81040FF
:103C180004B07047C801002038B5084B05461C6839
:103C280024B1A36913B9204601F0BCFFA268294654
:103C38002046BDE8384002F0E3BE00BFC8010020BE
:103C48002DE9F04FBDB08B4609921C461F468146B0
:103C580002F056F9036818461193FCF7E1FA0A9046
:103C6800B9F1000F05D0D9F8183013B9484601F05A
:103C780099FF964B9B4502D1D9F804B00AE0944BC2
:103C88009B4502D1D9F808B004E0924B9B4508BF88
:103C9800D9F80CB0BBF90C30980409D4DBF86420CF
:103CA80043F4005322F40052ABF80C30CBF86420F4
:103CB800BBF80C30190709D5DBF8103033B1BBF865
:103CC8000C3003F01A030A2B16D109E0594648466E
:103CD80000F0DAFF0028F2D04FF0FF3000F097BF75
:103CE800BBF90E30002B07DB2346099A5946484694
:103CF80000F094FF00F08BBF00232CAC1F9421939D
:103D0800209308930C930D93139312930E93099D8C
:103D18002B4613F8012B1AB1252A01D01D46F7E7C7
:103D2800099BEE1A17D084E84800219B334421935D
:103D3800209B0133072B209301DC083408E01FAADD
:103D48005946484602F0E5FE002840F027862CAC8C
:103D58000E9B33440E932B78002B00F0188600221C
:103D68006B1C114615468DF85F204FF0FF3A0B92F9
:103D78000A205E1C1B7809960693069B203B582B4D
:103D880000F25B82DFE813F05C00590259026B0015
:103D98005902590259025902590259026E00590032
:103DA800590278007B0059029F00AA00AA00AA00C5
:103DB800AA00AA00AA00AA00AA00AA005902590249
:103DC8005902590259025902590259025902590213
:103DD800DA0006015902060159025902590259022C
:103DE800BD00590259024B015902590259025902A0
:103DF80059029201590259026600590259025902A0
:103E08005902590259025902590259025902D1005C
:103E18006100060106010601C0006100590259024D
:103E2800C30059022D014D016801CE0059027901E4
:103E38005902940159025902AC0101222B2102E0D6
:103E480009B901222021099B93E7002A7BD08DF82C
:103E58005F1078E00AB18DF85F101F4B44E145F020
:103E68000105F0E73E683B1D002E0B9601DB1F465F
:103E7800E9E71F4676420B9645F00405E3E7099B00
:103E88005E1C1B782A2B069301D000230AE0D7F882
:103E980000A03B1DBAF1000F1F460996D3DA4FF078
:103EA800FF3AD0E70996069E303E092E08D800FB57
:103EB8000363099EB6461EF8016B06967646F1E73F
:103EC80043EAE37A59E745F08005BCE7EC76000859
:103ED8000C7700082C770008A976000800230B93BC
:103EE800069B0B9E303B00FB06330B93099B1E463B
:103EF80016F8013B0693069B0996303B092BEFD930
:103F08003BE745F008059EE745F040059BE7099B20
:103F18001B786C2B03D1099B0133099302E045F010
:103F2800100590E745F020058DE73B1D07933B689A
:103F380000268DF888308DF85F608DE10AB18DF824
:103F48005F1045F01005AA0608D5073727F00707C0
:103F580007F108030793D7E900670EE015F0100F83
:103F680007F1040302D007933E6805E03E6815F0A8
:103F7800400F079318BF36B2F717002E77F10003EA
:103F880080F2DC8076424FF02D0367EB47078DF80F
:103F98005F30D3E00AB18DF85F10073727F00707C5
:103FA80007F1080307933B684FF0FF320C937B68D7
:103FB8000C9F0D930D9B384623F000463146A94BC4
:103FC800FCF788FD002840F0F0844FF0FF32A54B45
:103FD80038463146FCF760FD002840F0E68400F0E2
:103FE800FFBD0AB18DF85F1015F0200F07F104032B
:103FF80007D00E993A68CE1708463146C2E9000143
:104008000BE0E90606D46A0604D53A68BDF838100C
:10401800118002E03A680E9911601F4677E645F074
:10402800100515F0200309D0073727F0070707F117
:1040380008030793D7E9006700237BE03A1D15F0D2
:104048001001079205D115F0400302D03E880027E1
:10405800F2E73E6800276DE03B1D079330238DF89B
:104068006030814B78223E681393002745F00205A3
:104078008DF86120022306925CE000263B1DB245C4
:104088000793D7F800808DF85F600ADB5246314607
:10409800404602F0C5F9002800F0E880C8EB000AA5
:1040A800E5E04046FCF7BCF88246E0E045F0100544
:1040B800AE0608D5073727F0070707F10803079367
:1040C800D7E900670AE03B1D15F0100F079303D1ED
:1040D800680601D53E8800E03E680027012329E0F4
:1040E8000AB18DF85F10604BA906139308D50737FE
:1040F80027F0070707F108030793D7E900670AE0E5
:104108003B1D15F0100F079303D16A0601D53E88B1
:1041180000E03E680027EB070BD556EA070308D0F6
:1041280030238DF860309DF8183045F002058DF881
:104138006130022300228DF85F2000E00123BAF1EC
:10414800000FC0F25E8556EA070225F0800103D110
:10415800BAF1000F5FD006E00D46012B25D0022BE7
:1041680046D0294607E00D46012B22D0022B3DD030
:104178002946002600270DF1B008F20842EA4772E6
:10418800F80806F0070307461646303356EA0702D2
:1041980008F8013DF1D1E80748D5302B46D0302347
:1041A80008F8013C08F1FF3840E0002F08BF0A2E4C
:1041B80005D230360DF1F00808F8416D29E00DF10F
:1041C800B008304639460A220023FCF7C1FC3032D9
:1041D80008F8012D0023304639460A22FCF7B8FCBE
:1041E80006460F4656EA0703EBD112E000260027E1
:1041F8000DF1B008139A06F00F03D35C3A0908F8DA
:10420800013D330943EA07731E46174656EA07037A
:10421800F0D129460AE03BB9EA0705D50DF1F008C7
:10422800302308F8413D01E00DF1B0082CAB5646AB
:104238000D46C8EB030A00271AE00AB18DF85F1093
:10424800069B002B00F0A3839DF8183000268DF8FC
:1042580088308DF85F6007974FF0010A37460DF1F7
:10426800880805E0FFFFEF7FBA7600080646374664
:1042780056453346B8BF53460F939DF85F3013B188
:104288000F9B01330F9315F0020314931EBF0F9B6E
:1042980002330F9315F08403159339D10B9B0F9AB2
:1042A8009B1A002B109333DD109B102BA24B23601D
:1042B80018DD10236360219B10332193209B013369
:1042C800072B209301DC083408E01FAA594648460A
:1042D80002F01FFC002840F061832CAC109B103BBF
:1042E8001093E1E7109B109A6360219B134421937C
:1042F800209B0133072B209301DC083408E01FAA18
:104308005946484602F005FC002840F047832CAC8B
:104318009DF85F30BBB10DF15F032360012363603B
:10432800219B01332193209B0133072B209301DC30
:10433800083408E01FAA5946484602F0EAFB00285C
:1043480040F02C832CAC149BB3B118AB2360022330
:104358006360219B02332193209B0133072B209319
:1043680001DC083408E01FAA5946484602F0D1FB90
:10437800002840F013832CAC159B802B39D10B9B64
:104388000F9A9B1A002B109333DD109B102B6B4B4D
:10439800236018DD10236360219B10332193209B39
:1043A8000133072B209301DC083408E01FAA594683
:1043B800484602F0AEFB002840F0F0822CAC109B7F
:1043C800103B1093E1E7109B109A6360219B134404
:1043D8002193209B0133072B209301DC083408E04C
:1043E8001FAA5946484602F094FB002840F0D6829E
:1043F8002CACCAEB0606002E2EDD504B102E236087
:1044080016DD10236360219B10332193209B013319
:10441800072B209301DC083408E01FAA59464846B8
:1044280002F077FB002840F0B9822CAC103EE4E79C
:10443800209B219801336660072B06442196209320
:1044480001DC083408E01FAA5946484602F061FB1F
:10445800002840F0A3822CACEB0514D4219B84E8FF
:10446800000553442193209B0133072B209340F3ED
:1044780044821FAA5946484602F04BFB002840F0E8
:104488008D822CAC3AE2069B652B40F3AD8100226D
:1044980000230C980D99FCF7EBFA00285DD0284B07
:1044A800236001236360219B01332193209B013307
:1044B800072B209301DC083408E01FAA5946484618
:1044C80002F027FB002840F069822CAC199B089A5F
:1044D800934202DBEF0740F11182119B0A9A236095
:1044E8000A9B6360219B13442193209B0133072B74
:1044F800209301DC083408E01FAA5946484602F018
:1045080008FB002840F04A822CAC089B5E1E002E57
:1045180040F3F481094F4FF01008102E40F35881F2
:10452800219B84E8800110332193209B0133072BC2
:10453800209307DC08340EE089760008CD76000861
:10454800CB7600081FAA5946484602F0E2FA00282E
:1045580040F024822CAC103EDFE7199B002B7CDC5A
:104568009F4B236001236360219B01332193209B90
:104578000133072B209301DC083408E01FAA5946B1
:10458800484602F0C6FA002840F008822CAC199B75
:1045980023B9089B13B9EE0740F1B081119B0A9A21
:1045A80023600A9B6360219B13442193209B013362
:1045B800072B209302DC04F1080308E01FAA5946E0
:1045C800484602F0A6FA002840F0E8812CAB199E74
:1045D8007642002E30DD834F1024102E16DD219AEE
:1045E8001F6010322192209A5C600132072A2092C3
:1045F80001DC083308E01FAA5946484602F089FA48
:10460800002840F0CB812CAB103EE6E7754A83E8E2
:104618004400219A1644209A21960132072A2092B2
:1046280001DC083308E01FAA5946484602F071FA2F
:10463800002840F0B3812CAB089A08995A60219A57
:10464800C3F800800A442192209A0132072A209256
:104658003FF70FAF03F1080450E1089BBB42A8BF26
:104668003B46002B1E4615DD6360219BC4F8008085
:1046780033442193209B0133072B209301DC08341A
:1046880008E01FAA5946484602F043FA002840F0BD
:1046980085812CAC002EB4BF3E46BE1B002E30DDFB
:1046A8004FF0100A4F4B102E236016DD219BC4F8E3
:1046B80004A010332193209B0133072B209301DCA6
:1046C800083408E01FAA5946484602F022FA002892
:1046D80040F064812CAC103EE4E7219B66601E44E8
:1046E800209B21960133072B209301DC083408E036
:1046F8001FAA5946484602F00CFA002840F04E819D
:104708002CAC199B089A4744934201DBE80717D55C
:10471800119B0A9A23600A9B6360219B134421938F
:10472800209B0133072B209301DC083408E01FAAE3
:104738005946484602F0EDF9002840F02F812CAC8C
:10474800089B089A08EB0306199BF61BD31A9E428E
:10475800A8BF1E46002E14DD219B276033442193F9
:10476800209B66600133072B209301DC083408E0A6
:104778001FAA5946484602F0CCF9002840F00E819D
:104788002CAC199B089A002EA2EB0303B4BF1E465B
:104798009E1B002E40F3B280124F4FF01008102ECF
:1047A80016DD219B84E8800110332193209B01337F
:1047B800072B209301DC083408E01FAA5946484615
:1047C80002F0A7F9002840F0E9802CAC103EE6E79B
:1047D800044B84E84800219B1E44219643E600BF11
:1047E800CB760008CD760008089B012B01DCE90791
:1047F80073D501236360219BC4F8008001332193A2
:10480800209B0133072B209301DC083408E01FAA02
:104818005946484602F07DF9002840F0BF802CAC8C
:10482800119B0A9A23600A9B6360219B134421937E
:10483800209B0133072B209301DC083408E01FAAD2
:104848005946484602F065F9002840F0A7802CAC8C
:10485800002300220C980D99FCF70AF9089B5E1EAC
:10486800B8B908F1010384E84800219B089A013B84
:1048780013442193209B0133072B209334DD1FAA77
:104888005946484602F045F9002840F087802CAC8C
:104898002BE0002E29DD8E4F4FF01008102E15DD6D
:1048A800219B84E8800110332193209B0133072B3F
:1048B800209301DC083407E01FAA5946484602F055
:1048C80028F900286AD12CAC103EE7E7804B84E831
:1048D8004800219B1E442196CCE701236360219B5D
:1048E800C4F800800133C4E708341BAB2360129B73
:1048F800129A6360219B1344B4E508346A070BD409
:104908000E9B0B9A0F998A42ACBF9B185B180E93AB
:10491800219B002B35D02EE00B9B0F9A9D1A002D62
:10492800EEDD10266B4B102D236013DD219B666096
:1049380010332193209B0133072B209301DC08348B
:1049480006E01FAA5946484602F0E3F830BB2CACF3
:10495800103DE7E7219B65601D44209B21950133AD
:10496800072B2093CCDD1FAA5946484602F0D1F800
:104978000028C5D012E01FAA5946484602F0C9F8D7
:1049880060B900232093079F2CACFFF7C0B9219B87
:1049980023B11FAA5946484602F0BBF8BBF80C30B1
:1049A8005B063FF599A90E9831E10C9A0D9B0C987E
:1049B8000D99FCF78FF860B1474B484A069925F0E6
:1049C80080054729CCBF904698464FF0030A002639
:1049D8004DE4BAF1FF3F0AD0069B23F02003472B92
:1049E80007D1BAF1000F08BF4FF0010A01E04FF0FC
:1049F800060A45F4807315930D9B1F1E0C9BA8BFD8
:104A080010970F93BDBF3B4603F10043109300235B
:104A1800B8BF2D231493069B23F02007462F04D0FC
:104A2800452F05D10AF1010603E05646032301E0AC
:104A3800564602231DAA04921AAA039219AA0292A0
:104A48008DE848000F9A109B484600F019FA472F46
:104A5800804602D1EB0740F1D08008EB0603462FD1
:104A6800089311D198F80030302B09D10022002387
:104A78000F981099FBF7FCFF10B9C6F101061996BB
:104A8800089A199B1A440892002200230F9810993B
:104A9800FBF7EEFF08B9302202E0089B1D9307E000
:104AA8001D9B0899994203D9591C1D911A70F7E763
:104AB8001D9B472FC8EB0303089311D1199BDF1CDB
:104AC80001DB9A456BDA069B023B06930BE000BFBD
:104AD800CD76000889760008A1760008A57600083A
:104AE800069B652B44DC199B9DF81820013B002B85
:104AF8001993B8BF5B428DF86C20B4BF2D222B22CE
:104B0800092B8DF86D201DDD0DF17B020A2093FB2A
:104B1800F0F100FB1133092903F1300302F8013DDC
:104B28000B46F4DC303302F8013C511E0DF16E03E4
:104B38000DF17B0081421A460BD211F8012B03F8C4
:104B4800012BF7E7302213448DF86E208DF86F3073
:104B58001CAA1BABD31A089A1293012A03EB020A68
:104B680002DC15F0010732D00A9B00279A442EE098
:104B7800069B662B13D1199B002B07DDBAF1000F9A
:104B880001D1EE0721D50A9A134406E0BAF1000FC5
:104B980001D1ED0714D50A9B0133534415E0199B45
:104BA800089A934203DBE8070DD50A9A06E0089AAB
:104BB8000A99002B0A4405DCC3F10103134402E0FF
:104BC800012302E01346672206929A46199F149B16
:104BD80013B12D238DF85F30159D0026FFF748BBD4
:104BE800002200230C980D99FBF74CFF10B12D23E0
:104BF8008DF85F30074B084AE0E61D9B1B1A0893A7
:104C08005CE756EA07027FF4A8AAFFF7ADBA3DB001
:104C1800BDE8F08F997600089D76000870B50C46BF
:104C28008989ADF58D6D21F00201ADF80C10616E2A
:104C380006461991E189ADF80E10216A0891A16A1A
:104C48000A911AA9009104914FF48061029105918B
:104C5800002106916946FEF7F3FF051E07DB69464A
:104C6800304600F035FF002818BF4FF0FF352846C2
:104C7800BDF80C305B0642BFA38943F04003A38113
:104C88000DF58D6D70BD0000324B70B51D68064680
:104C98000C4625B1AB6913B9284600F083FF2E4BAB
:104CA8009C4201D16C6808E02C4B9C4201D1AC6855
:104CB80003E02B4B9C4208BFEC68B4F90C309AB265
:104CC80015071DD4D00602D4092232603AE05107F4
:104CD80012D5616B41B104F14403994202D03046C8
:104CE80001F028F800236363A38923F02403A38138
:104CF8000023636023692360A38943F00803A38129
:104D080023694BB9A38903F42073B3F5007F03D05B
:104D18002146304601F024F9A28912F0010305D09A
:104D28000023A36063695B42A36103E0920758BF55
:104D38006369A36023695BB9B4F90C3003F08000A0
:104D480080B230B143F04003A3814FF0FF3070BD13
:104D5800002070BDC8010020EC7600080C77000820
:104D68002C7700082DE9F74F03690C6980469C42AF
:104D78007FDC013C01F114074FEA840E00F11406B0
:104D880006EB0E0357F82450019356F824300135EA
:104D9800B3FBF5F507EB0E09C5B34FF0000A38462B
:104DA800B446D34650F8043B9AB205FB02A21B0C4A
:104DB8004FEA124A05FB03A392B2C2EB0B0BBCF8F5
:104DC80000204FEA134A5A441FFA83FBDCF80030EC
:104DD8008145CBEB134303EB224392B242EA0342F1
:104DE8004FEA234B4CF8042BDCD256F80E306BB943
:104DF800019B043B9E421A4602D3C8F8104005E0C6
:104E08001268043B002AF8D1013CF3E7404601F060
:104E18002EFD00282BDB304601354FF0000E57F8E9
:104E2800042B036891B2C1EB0E0E120C99B27144B7
:104E3800C2EB134303EB214389B24FEA234EB94532
:104E480041EA034340F8043BE9D256F8242006EB34
:104E5800840362B9043B9E421A4602D3C8F8104044
:104E680005E01268043B002AF8D1013CF3E7284624
:104E780000E0002003B0BDE8F08F00000000000053
:104E88002DE9F04F456A95B08246219CCDE9022371
:104E980045B9102001F0A0F8CAF8240045608560E3
:104EA8000560C560DAF82430196859B15A680123D9
:104EB80093404A608B60504601F002FBDAF82430D8
:104EC80000221A60039BA04A002BBDBF0123236068
:104ED800039B0023BCBF23F000430393DDF80C8041
:104EE800A8BF236028F000431B0D1B0593421DD16A
:104EF80042F20F73209A1360029B43B9934A944B72
:104F0800C8F31300002814BF1846104600E0904864
:104F1800229B002B00F04685C37813B100F10803EB
:104F280000E0C31C229A136000F03CBDDDE9024595
:104F38000022002320462946FBF79AFD074658B170
:104F4800209A01231360229B002B00F01E858148C4
:104F58001860013800F026BD12AB019313AB009323
:104F680022462B46504601F0FDFCC8F30A56049031
:104F780056B1C5F3130343F07F51204641F4401165
:104F8800A6F2FF3611971DE0139B129E1E4406F2EF
:104F98003243202B0ADD029A06F21240C3F1400385
:104FA80022FA00F008FA03F3184304E0C3F12000E2
:104FB800029B03FA00F0FBF77DFA0123A1F1F871D7
:104FC800013E11930022644BFBF736F958A3D3E94D
:104FD8000023FBF7E5FA58A3D3E90023FBF72EF9E2
:104FE800044630460D46FBF775FA55A3D3E900236E
:104FF800FBF7D6FA02460B4620462946FBF71EF970
:1050080004460D46FBF77CFD00228346002320461C
:105018002946FBF737FD58B15846FBF75BFA0246BD
:105028000B4620462946FBF723FD08B90BF1FF3B49
:10503800BBF1160F0DD8DDE90223484901EBCB017E
:10504800D1E90001FBF73CFD30B10BF1FF3B002338
:1050580000E00123109300E01090129B9E1B731E2A
:10506800079343BFC3F10008002307934FF00008DC
:10507800BBF1000F06DB079BCDF82CB05B44079310
:10508800002705E00023CBEB0808CBF100070B93C2
:105098001E9B092B28D8052BC4BF043B1E931E9BBF
:1050A800C8BF0025A3F10203D8BF0125032B20D8D0
:1050B800DFE803F0060E0204012302E0012308E002
:1050C80000230A931F9B002B1DDD9946059321E0C1
:1050D80000230A931F9B0BEB030909F10103012B22
:1050E8000593B8BF012315E0012500231E930A95F7
:1050F80001E001230A934FF0FF390022CDF8149004
:1051080012231F9206E04FF001094B46CDF8149088
:10511800CDF87C90DAF8244000226260042101F185
:1051280014029A421CD86268490001326260F6E7AC
:1051380061436F63A787D23FB3C8608B288AC63F95
:10514800FB799F501344D33F0000F07FDD760008C1
:10515800E6760008CC7600080000F83F6077000883
:105168006168504601F077F9DAF8243020601B684E
:105178000693059B0E2B00F25B81002D00F05881F1
:10518800DDE90234BBF1000FCDE90E3430DD9F4A72
:105198000BF00F034FEA2B1502EBC303E80618CBFD
:1051A800CDE908340CD5DDE90E01994B05F00F0562
:1051B800D3E90823FBF71EFB0324CDE9020100E035
:1051C8000224934E6DB1E90708D5DDE90801D6E957
:1051D8000023FBF7E5F9CDE9080101346D10083625
:1051E800F0E7DDE90823DDE90201FBF703FB20E036
:1051F800CBF1000505B3DDE90E01844B05F00F0284
:1052080003EBC203D3E90023FBF7CAF9CDE9020196
:105218007F4E2D110023022455B1EA0705D5D6E9A2
:105228000023FBF7BDF9013401236D100836F3E7BD
:105238001BB1CDE9020100E00224109BE3B1DDE9D6
:1052480002560022734B28463146FBF71BFC98B1E7
:10525800059B8BB1B9F1000F40F3E6800BF1FF33EA
:105268000893314600226C4B2846FBF799F9013424
:10527800CDE902014E4602E0059ECDF820B0204659
:10528800FBF728F9DDE90223FBF78AF9634B0022D3
:10529800FAF7D4FFA1F1507304460C931D46D6B912
:1052A800DDE9020100225E4BFAF7C6FF22460C9B9D
:1052B800CDE90201FBF704FC002840F03F820C997D
:1052C800224601F10043DDE90201FBF7DBFB002880
:1052D80040F02B82A8E00A9A4C4B711E002A49D054
:1052E80003EBC103D3E9002300204E49FBF782FA00
:1052F80022462B46FAF7A0FFCDE90C01069CDDE912
:105308000201FBF7FDFB0546FBF7E4F802460B46F6
:10531800DDE90201FAF790FFDDE90C23303504F8E6
:10532800015BCDE90201FBF7ADFB002840F01D83CE
:10533800DDE9022300203749FAF77EFFDDE90C2377
:10534800FBF7A0FB002840F0D180069BE31AB3428C
:105358006ADADDE90C0100222F4BFBF721F9002264
:10536800CDE90C01DDE902012B4BFBF719F9CDE979
:105378000201C4E703EBC1012246D1E900012B4633
:10538800FBF70EF9069BCDE90C011D469C19DDE9DA
:105398000201FBF7B5FB0646FBF79CF802460B46F5
:1053A800DDE90201FAF748FF303605F8016BAC4237
:1053B800CDE902014FF0000222D11A4BDDE90C01C0
:1053C800FAF73CFF02460B46DDE90201FBF778FBE2
:1053D800002840F08B80DDE90C2300201149FAF702
:1053E8002BFF02460B46DDE90201FBF74BFBD8B168
:1053F80014F8013C621E302B40F0B7821446F7E7E0
:10540800054BFBF7CDF8CDE90201C0E7607700084E
:10541800287800080000F03F0000244000001C40ED
:10542800000014400000E03FDDE90E34CDE902340D
:10543800139B002B7CDBBBF10E0F79DCAB4B03EB32
:10544800CB03D3E900671F9B002B14DA059B002BC5
:1054580011DC40F06C810022A54B30463946FBF741
:105468009FF8DDE90223FBF721FB059D2E46002866
:1054780040F05F8165E1069CDDE9028932463B46E2
:1054880040464946FBF7B6F9FBF73AFB0546FBF7FA
:1054980021F832463B46FBF783F80B46024649465D
:1054A8004046FAF7C9FE05F1300E069B04F801EBF9
:1054B800C3EB040E059B73452DD102460B46FAF744
:1054C800BDFE8046894602460B4630463946FBF704
:1054D800D9FA78B942464B4630463946FBF7C8FAFE
:1054E800002800F04482EB0704D440E2DDF820B045
:1054F80000E01C4614F8012C631E392A07D1069ACD
:105508009A42F6D1069930220BF1010B0A701A78EB
:1055180001321A702BE20022764BFBF741F8002289
:10552800002380468946FBF7A3FA0028A6D01EE28E
:105538000A9A002A2BD01E9A012A0ADC119A12B163
:1055480003F2334302E0129BC3F136033D4644465F
:1055580013E0059B5D1EAF42BFBF0B9BEA1B9B1868
:105568000B93059BB6BF2F467D1B0025002BA7BFBD
:105578004446059BC3EB08040023079A01211A44FB
:1055880050469844079201F03AF8064602E03D4634
:1055980044460A9E5CB1079B002B08DDA342A8BFC6
:1055A8002346079AC3EB0808E41AD31A0793002F77
:1055B8001DDD0A9BABB18DB131462A46504601F03C
:1055C800B7F8049A01460646504601F021F80499B6
:1055D8000890504600F074FF089B04937A1B06D08D
:1055E80000E03A460499504601F0A2F804900121DF
:1055F800504601F004F80B9B05465BB31A4601467A
:10560800504601F095F81E9B0546012B18DC029BBD
:1056180083B9039BC3F3130373B9039B23F00047B8
:105628003F0D3F054FB1079B08F101080133079370
:10563800012702E0002700E0029F0B9B73B100E006
:1056480000272B6905EB8303186900F08BFFC0F175
:10565800200004E01E9B012BD9DD0B9F0120079B36
:10566800184410F01F0008D0C0F12003042B02DDFD
:10567800C0F11C0002E006D018461C30079B80448D
:10568800034404440793B8F1000F05DD424604992A
:10569800504601F09BF80490079B002B05DD294636
:1056A8001A46504601F092F80546109B23B3294646
:1056B800049801F0DCF800281EDA00230A22049975
:1056C800504600F014FF0A9B0BF1FF3B0490002B9F
:1056D80000F05F81314600230A22504600F007FFA0
:1056E800B9F1000F06463FDC3BE000BF60770008D9
:1056F8000000144000002440059B002B2BDC1E9B5F
:10570800022B28DDDDF81490B9F1000F11D12946DC
:105718004B460522504600F0EAFE0146054604982D
:1057280001F0A5F800280CDC03E0354600E0002570
:105738002E461F9B069C6FEA030B09E03546DDF8F1
:1057480020B0069B069A5C1C312313700BF1010BE9
:1057580005960026F7E00A9BDDF8149023B9069C0D
:10576800B2E01E9B022BCFDC002C05DD3146224621
:10577800504601F02BF806469FB17168504600F07C
:105788006AFE0446326906F10C01023292000C30BE
:1057980000F054FE01222146504601F017F805900A
:1057A80000E00596029B069F03F001030793294634
:1057B8000498FFF7D7FA3146044600F130080498F8
:1057C80001F055F8059A02902946504601F06BF809
:1057D800C36802463BB901460A90049801F047F8AD
:1057E8000A9A034600E00123114650460A9300F046
:1057F80067FE0A9B53B91E9A42B9079A32B9B8F1A3
:10580800390F2AD0029B002B1CDC1DE0029A002ACB
:1058180004DB1BD11E9ACAB9079ABAB9002B13DD4B
:1058280001220499504600F0D1FF2946049001F066
:105838001EF8002803DC07D118F0010F04D0B8F1D6
:10584800390F0AD004F131087C1C0CE0002B07F159
:1058580001040BDDB8F1390F03D139233B7001374F
:1058680056E008F1010887F800806CE0069B27469F
:10587800E31A4B4504F8018C3BD000230A22049913
:10588800504600F034FE059B04909E424FF00A02F9
:105898004FF000033146504604D100F028FE06467A
:1058A800059084E700F023FE002306460A220599A6
:1058B800504600F01CFE059079E700230A2204995F
:1058C800504600F014FE049029460498FFF74AFA5F
:1058D800069B00F1300804F8018BE31A4B45ECDB1A
:1058E800069B0596B9F1010FACBF4B4401331F4627
:1058F800002601220499504600F068FF29460490CA
:1059080000F0B5FF002803DC15D118F0010F12D004
:105918003C4614F8013C621E392B09D1069B934280
:1059280004D10BF1010B3123069A02E01446F0E78B
:105938000133137007E03C4614F8013C621E302B1B
:1059480001D11446F8E72946504600F0B9FD059BF9
:105958006BB12EB19E4203D03146504600F0B0FDE7
:105968000599504600F0ACFD01E0DDF820B004993F
:10597800504600F0A5FD0023209A23700BF1010387
:105988001360229B1BB11C6001E008480AE00698DE
:1059980008E0B9F1000F3FF7E2AE1E9B022B7FF73C
:1059A800DEAEB1E615B0BDE8F08F00BFCB760008DB
:1059B800B1F90C202DE9F04193B2054618070C46C1
:1059C80060D44B6842F40062002B8A8102DC0B6CC5
:1059D800002B17DDE66AAEB102F48052002392B2C2
:1059E8002F682B600AB1606D15E0216A01232846F3
:1059F800B047411C0FD12B686BB11D2B01D0162B62
:105A080003D12F600020BDE8F081A38943F0400353
:105A1800A381BDE8F081A3895A0705D56368C01A38
:105A2800636B0BB1236CC01A00230246E66A216A35
:105A38002846B047431CA38906D129681D293DD8AB
:105A4800224ACA40D60739D5002223F400631BB284
:105A580062602269D904A381226004D5421C01D165
:105A68002B6803B96065616B2F600029CAD004F107
:105A78004403994202D0284600F05CF90020606394
:105A8800BDE8F0810F69002FBCD09B070E680CBFE2
:105A98004B690023C7EB06080F608B6002E00744E0
:105AA800C0EB0808B8F1000FACDD43463A46216A5E
:105AB8002846A66AB0470028F1DCA38943F04003D2
:105AC800A3814FF0FF30BDE8F08100BF0100402006
